{
  "contractName": "IndexSwap",
  "abi": [
    {
      "inputs": [],
      "stateMutability": "nonpayable",
      "type": "constructor"
    },
    {
      "anonymous": false,
      "inputs": [
        {
          "indexed": true,
          "internalType": "address",
          "name": "owner",
          "type": "address"
        },
        {
          "indexed": true,
          "internalType": "address",
          "name": "spender",
          "type": "address"
        },
        {
          "indexed": false,
          "internalType": "uint256",
          "name": "value",
          "type": "uint256"
        }
      ],
      "name": "Approval",
      "type": "event"
    },
    {
      "anonymous": false,
      "inputs": [],
      "name": "LOG_PUBLIC_SWAP_ENABLED",
      "type": "event"
    },
    {
      "anonymous": false,
      "inputs": [
        {
          "indexed": true,
          "internalType": "address",
          "name": "previousOwner",
          "type": "address"
        },
        {
          "indexed": true,
          "internalType": "address",
          "name": "newOwner",
          "type": "address"
        }
      ],
      "name": "OwnershipTransferred",
      "type": "event"
    },
    {
      "anonymous": false,
      "inputs": [
        {
          "indexed": true,
          "internalType": "address",
          "name": "from",
          "type": "address"
        },
        {
          "indexed": true,
          "internalType": "address",
          "name": "to",
          "type": "address"
        },
        {
          "indexed": false,
          "internalType": "uint256",
          "name": "value",
          "type": "uint256"
        }
      ],
      "name": "Transfer",
      "type": "event"
    },
    {
      "inputs": [],
      "name": "VERSION_NUMBER",
      "outputs": [
        {
          "internalType": "uint256",
          "name": "",
          "type": "uint256"
        }
      ],
      "stateMutability": "view",
      "type": "function"
    },
    {
      "inputs": [
        {
          "internalType": "address",
          "name": "owner",
          "type": "address"
        },
        {
          "internalType": "address",
          "name": "spender",
          "type": "address"
        }
      ],
      "name": "allowance",
      "outputs": [
        {
          "internalType": "uint256",
          "name": "",
          "type": "uint256"
        }
      ],
      "stateMutability": "view",
      "type": "function"
    },
    {
      "inputs": [
        {
          "internalType": "address",
          "name": "spender",
          "type": "address"
        },
        {
          "internalType": "uint256",
          "name": "amount",
          "type": "uint256"
        }
      ],
      "name": "approve",
      "outputs": [
        {
          "internalType": "bool",
          "name": "",
          "type": "bool"
        }
      ],
      "stateMutability": "nonpayable",
      "type": "function"
    },
    {
      "inputs": [
        {
          "internalType": "address",
          "name": "account",
          "type": "address"
        }
      ],
      "name": "balanceOf",
      "outputs": [
        {
          "internalType": "uint256",
          "name": "",
          "type": "uint256"
        }
      ],
      "stateMutability": "view",
      "type": "function"
    },
    {
      "inputs": [
        {
          "internalType": "uint256",
          "name": "amount",
          "type": "uint256"
        }
      ],
      "name": "burn",
      "outputs": [],
      "stateMutability": "nonpayable",
      "type": "function"
    },
    {
      "inputs": [
        {
          "internalType": "address",
          "name": "account",
          "type": "address"
        },
        {
          "internalType": "uint256",
          "name": "amount",
          "type": "uint256"
        }
      ],
      "name": "burnFrom",
      "outputs": [],
      "stateMutability": "nonpayable",
      "type": "function"
    },
    {
      "inputs": [],
      "name": "currentRate",
      "outputs": [
        {
          "internalType": "uint256",
          "name": "numerator",
          "type": "uint256"
        },
        {
          "internalType": "uint256",
          "name": "denominator",
          "type": "uint256"
        }
      ],
      "stateMutability": "view",
      "type": "function"
    },
    {
      "inputs": [],
      "name": "decimals",
      "outputs": [
        {
          "internalType": "uint8",
          "name": "",
          "type": "uint8"
        }
      ],
      "stateMutability": "view",
      "type": "function"
    },
    {
      "inputs": [
        {
          "internalType": "address",
          "name": "spender",
          "type": "address"
        },
        {
          "internalType": "uint256",
          "name": "subtractedValue",
          "type": "uint256"
        }
      ],
      "name": "decreaseAllowance",
      "outputs": [
        {
          "internalType": "bool",
          "name": "",
          "type": "bool"
        }
      ],
      "stateMutability": "nonpayable",
      "type": "function"
    },
    {
      "inputs": [
        {
          "internalType": "address",
          "name": "spender",
          "type": "address"
        },
        {
          "internalType": "uint256",
          "name": "addedValue",
          "type": "uint256"
        }
      ],
      "name": "increaseAllowance",
      "outputs": [
        {
          "internalType": "bool",
          "name": "",
          "type": "bool"
        }
      ],
      "stateMutability": "nonpayable",
      "type": "function"
    },
    {
      "inputs": [],
      "name": "name",
      "outputs": [
        {
          "internalType": "string",
          "name": "",
          "type": "string"
        }
      ],
      "stateMutability": "view",
      "type": "function"
    },
    {
      "inputs": [],
      "name": "owner",
      "outputs": [
        {
          "internalType": "address",
          "name": "",
          "type": "address"
        }
      ],
      "stateMutability": "view",
      "type": "function"
    },
    {
      "inputs": [],
      "name": "pancakeSwapRouter",
      "outputs": [
        {
          "internalType": "contract IPancakeRouter02",
          "name": "",
          "type": "address"
        }
      ],
      "stateMutability": "view",
      "type": "function"
    },
    {
      "inputs": [],
      "name": "renounceOwnership",
      "outputs": [],
      "stateMutability": "nonpayable",
      "type": "function"
    },
    {
      "inputs": [],
      "name": "symbol",
      "outputs": [
        {
          "internalType": "string",
          "name": "",
          "type": "string"
        }
      ],
      "stateMutability": "view",
      "type": "function"
    },
    {
      "inputs": [],
      "name": "totalSupply",
      "outputs": [
        {
          "internalType": "uint256",
          "name": "",
          "type": "uint256"
        }
      ],
      "stateMutability": "view",
      "type": "function"
    },
    {
      "inputs": [
        {
          "internalType": "address",
          "name": "to",
          "type": "address"
        },
        {
          "internalType": "uint256",
          "name": "amount",
          "type": "uint256"
        }
      ],
      "name": "transfer",
      "outputs": [
        {
          "internalType": "bool",
          "name": "",
          "type": "bool"
        }
      ],
      "stateMutability": "nonpayable",
      "type": "function"
    },
    {
      "inputs": [
        {
          "internalType": "address",
          "name": "from",
          "type": "address"
        },
        {
          "internalType": "address",
          "name": "to",
          "type": "address"
        },
        {
          "internalType": "uint256",
          "name": "amount",
          "type": "uint256"
        }
      ],
      "name": "transferFrom",
      "outputs": [
        {
          "internalType": "bool",
          "name": "",
          "type": "bool"
        }
      ],
      "stateMutability": "nonpayable",
      "type": "function"
    },
    {
      "inputs": [
        {
          "internalType": "address",
          "name": "newOwner",
          "type": "address"
        }
      ],
      "name": "transferOwnership",
      "outputs": [],
      "stateMutability": "nonpayable",
      "type": "function"
    },
    {
      "stateMutability": "payable",
      "type": "receive"
    },
    {
      "inputs": [
        {
          "internalType": "address[]",
          "name": "tokens",
          "type": "address[]"
        },
        {
          "internalType": "uint96[]",
          "name": "denorms",
          "type": "uint96[]"
        }
      ],
      "name": "initialize",
      "outputs": [],
      "stateMutability": "nonpayable",
      "type": "function"
    },
    {
      "inputs": [],
      "name": "initializeDefult",
      "outputs": [],
      "stateMutability": "nonpayable",
      "type": "function"
    },
    {
      "inputs": [],
      "name": "initializeDefultTest",
      "outputs": [],
      "stateMutability": "nonpayable",
      "type": "function"
    },
    {
      "inputs": [
        {
          "internalType": "uint256",
          "name": "_numerator",
          "type": "uint256"
        },
        {
          "internalType": "uint256",
          "name": "_denominator",
          "type": "uint256"
        }
      ],
      "name": "updateRate",
      "outputs": [],
      "stateMutability": "nonpayable",
      "type": "function"
    },
    {
      "inputs": [
        {
          "internalType": "uint256",
          "name": "cryptoAmount",
          "type": "uint256"
        }
      ],
      "name": "investInFund",
      "outputs": [],
      "stateMutability": "payable",
      "type": "function"
    },
    {
      "inputs": [
        {
          "internalType": "uint256",
          "name": "tokenAmount",
          "type": "uint256"
        }
      ],
      "name": "withdrawFromFundNew",
      "outputs": [],
      "stateMutability": "payable",
      "type": "function"
    },
    {
      "inputs": [
        {
          "internalType": "address",
          "name": "crypto",
          "type": "address"
        }
      ],
      "name": "getPathForETH",
      "outputs": [
        {
          "internalType": "address[]",
          "name": "",
          "type": "address[]"
        }
      ],
      "stateMutability": "view",
      "type": "function"
    },
    {
      "inputs": [
        {
          "internalType": "address",
          "name": "token",
          "type": "address"
        }
      ],
      "name": "getPathForToken",
      "outputs": [
        {
          "internalType": "address[]",
          "name": "",
          "type": "address[]"
        }
      ],
      "stateMutability": "view",
      "type": "function"
    },
    {
      "inputs": [],
      "name": "getETH",
      "outputs": [
        {
          "internalType": "address",
          "name": "",
          "type": "address"
        }
      ],
      "stateMutability": "view",
      "type": "function"
    }
  ],
  "bytecode": "0x608060405273ef73e58650868f316461936a092818d5df96102e600760006101000a81548173ffffffffffffffffffffffffffffffffffffffff021916908373ffffffffffffffffffffffffffffffffffffffff16021790555073d2ada2cc6f97cfc1045b1cf70b3149139ac5f2a2600860006101000a81548173ffffffffffffffffffffffffffffffffffffffff021916908373ffffffffffffffffffffffffffffffffffffffff160217905550604051806101400160405280737130d2a12b9bcbfae4f2634d864a1ee1ce3ead9c73ffffffffffffffffffffffffffffffffffffffff1673ffffffffffffffffffffffffffffffffffffffff168152602001732170ed0880ac9a755fd29b2688956bd959f933f873ffffffffffffffffffffffffffffffffffffffff1673ffffffffffffffffffffffffffffffffffffffff168152602001732859e4544c4bb03966803b044a93563bd2d0dd4d73ffffffffffffffffffffffffffffffffffffffff1673ffffffffffffffffffffffffffffffffffffffff168152602001731d2f0da169ceb9fc7b3144628db156f3f6c60dbe73ffffffffffffffffffffffffffffffffffffffff1673ffffffffffffffffffffffffffffffffffffffff168152602001734338665cbb7b2485a8855a139b75d5e34ab0db9473ffffffffffffffffffffffffffffffffffffffff1673ffffffffffffffffffffffffffffffffffffffff168152602001731ce0c2827e2ef14d5c4f29a091d735a20479404173ffffffffffffffffffffffffffffffffffffffff1673ffffffffffffffffffffffffffffffffffffffff16815260200173ba2ae424d960c26247dd6c32edc70b295c744c4373ffffffffffffffffffffffffffffffffffffffff1673ffffffffffffffffffffffffffffffffffffffff16815260200173f8a0bf9cf54bb92f17374d9e9a321e6a111a51bd73ffffffffffffffffffffffffffffffffffffffff1673ffffffffffffffffffffffffffffffffffffffff16815260200173bf5140a22578168fd562dccf235e5d43a02ce9b173ffffffffffffffffffffffffffffffffffffffff1673ffffffffffffffffffffffffffffffffffffffff168152602001733ee2200efb3400fabb9aacf31297cbdd1d435d4773ffffffffffffffffffffffffffffffffffffffff1673ffffffffffffffffffffffffffffffffffffffff16815250600990600a62000386929190620005ff565b50604051806101400160405280600160ff168152602001600160ff168152602001600160ff168152602001600160ff168152602001600160ff168152602001600160ff168152602001600160ff168152602001600160ff168152602001600160ff168152602001600160ff16815250601390600a6200040792919062000681565b503480156200041557600080fd5b506040518060400160405280600781526020017f494e4445584c59000000000000000000000000000000000000000000000000008152506040518060400160405280600381526020017f494458000000000000000000000000000000000000000000000000000000000081525081600390805190602001906200049a92919062000738565b508060049080519060200190620004b392919062000738565b505050620004d6620004ca6200053160201b60201c565b6200053960201b60201c565b7310ed43c718714eb63d5aa57b78b54704e256024e600660006101000a81548173ffffffffffffffffffffffffffffffffffffffff021916908373ffffffffffffffffffffffffffffffffffffffff1602179055506200084d565b600033905090565b6000600560009054906101000a900473ffffffffffffffffffffffffffffffffffffffff16905081600560006101000a81548173ffffffffffffffffffffffffffffffffffffffff021916908373ffffffffffffffffffffffffffffffffffffffff1602179055508173ffffffffffffffffffffffffffffffffffffffff168173ffffffffffffffffffffffffffffffffffffffff167f8be0079c531659141344cd1fd0a4f28419497f9722a3daafe3b4186f6b6457e060405160405180910390a35050565b82600a81019282156200066e579160200282015b828111156200066d5782518260006101000a81548173ffffffffffffffffffffffffffffffffffffffff021916908373ffffffffffffffffffffffffffffffffffffffff1602179055509160200191906001019062000613565b5b5090506200067d9190620007c9565b5090565b82600a600101600290048101928215620007255791602002820160005b83821115620006e957835183826101000a8154816bffffffffffffffffffffffff021916908360ff1602179055509260200192600c01602081600b010492830192600103026200069e565b8015620007235782816101000a8154906bffffffffffffffffffffffff0219169055600c01602081600b01049283019260010302620006e9565b505b509050620007349190620007c9565b5090565b828054620007469062000817565b90600052602060002090601f0160209004810192826200076a5760008555620007b6565b82601f106200078557805160ff1916838001178555620007b6565b82800160010185558215620007b6579182015b82811115620007b557825182559160200191906001019062000798565b5b509050620007c59190620007c9565b5090565b5b80821115620007e4576000816000905550600101620007ca565b5090565b7f4e487b7100000000000000000000000000000000000000000000000000000000600052602260045260246000fd5b600060028204905060018216806200083057607f821691505b60208210811415620008475762000846620007e8565b5b50919050565b61446e806200085d6000396000f3fe6080604052600436106101bb5760003560e01c8063715018a6116100ec578063a457c2d71161008a578063ca0e7ed511610064578063ca0e7ed5146105eb578063dd62ed3e14610628578063f2fde38b14610665578063f9f8bdb71461068e576101c2565b8063a457c2d714610534578063a9059cbb14610571578063b0849c1c146105ae576101c2565b806381a8e605116100c657806381a8e605146104995780638da5cb5b146104b5578063955a333b146104e057806395d89b4114610509576101c2565b8063715018a61461042e57806379cc6790146104455780638025e3031461046e576101c2565b8063313ce56711610159578063405abb4111610133578063405abb411461038357806342966c68146103ac5780635bab42a1146103d557806370a08231146103f1576101c2565b8063313ce56714610304578063324bc2f11461032f5780633950935114610346576101c2565b806314f6c3be1161019557806314f6c3be1461024657806318160ddd1461027157806323b872dd1461029c57806324558995146102d9576101c2565b806306fdde03146101c7578063095ea7b3146101f25780630c2cd2cd1461022f576101c2565b366101c257005b600080fd5b3480156101d357600080fd5b506101dc6106ba565b6040516101e99190612ede565b60405180910390f35b3480156101fe57600080fd5b5061021960048036038101906102149190612fa8565b61074c565b6040516102269190613003565b60405180910390f35b34801561023b57600080fd5b5061024461076f565b005b34801561025257600080fd5b5061025b610b6a565b604051610268919061302d565b60405180910390f35b34801561027d57600080fd5b50610286610c02565b6040516102939190613057565b60405180910390f35b3480156102a857600080fd5b506102c360048036038101906102be9190613072565b610c0c565b6040516102d09190613003565b60405180910390f35b3480156102e557600080fd5b506102ee610c3b565b6040516102fb9190613124565b60405180910390f35b34801561031057600080fd5b50610319610c61565b604051610326919061315b565b60405180910390f35b34801561033b57600080fd5b50610344610c6a565b005b34801561035257600080fd5b5061036d60048036038101906103689190612fa8565b611065565b60405161037a9190613003565b60405180910390f35b34801561038f57600080fd5b506103aa60048036038101906103a59190613176565b61110f565b005b3480156103b857600080fd5b506103d360048036038101906103ce91906131b6565b611143565b005b6103ef60048036038101906103ea91906131b6565b611157565b005b3480156103fd57600080fd5b50610418600480360381019061041391906131e3565b61150f565b6040516104259190613057565b60405180910390f35b34801561043a57600080fd5b50610443611557565b005b34801561045157600080fd5b5061046c60048036038101906104679190612fa8565b6115df565b005b34801561047a57600080fd5b506104836115ff565b6040516104909190613057565b60405180910390f35b6104b360048036038101906104ae91906131b6565b611604565b005b3480156104c157600080fd5b506104ca611939565b6040516104d7919061302d565b60405180910390f35b3480156104ec57600080fd5b50610507600480360381019061050291906132cb565b611963565b005b34801561051557600080fd5b5061051e611d60565b60405161052b9190612ede565b60405180910390f35b34801561054057600080fd5b5061055b60048036038101906105569190612fa8565b611df2565b6040516105689190613003565b60405180910390f35b34801561057d57600080fd5b5061059860048036038101906105939190612fa8565b611edc565b6040516105a59190613003565b60405180910390f35b3480156105ba57600080fd5b506105d560048036038101906105d091906131e3565b611eff565b6040516105e2919061340a565b60405180910390f35b3480156105f757600080fd5b50610612600480360381019061060d91906131e3565b612086565b60405161061f919061340a565b60405180910390f35b34801561063457600080fd5b5061064f600480360381019061064a919061342c565b61220d565b60405161065c9190613057565b60405180910390f35b34801561067157600080fd5b5061068c600480360381019061068791906131e3565b612294565b005b34801561069a57600080fd5b506106a361238c565b6040516106b192919061346c565b60405180910390f35b6060600380546106c9906134c4565b80601f01602080910402602001604051908101604052809291908181526020018280546106f5906134c4565b80156107425780601f1061071757610100808354040283529160200191610742565b820191906000526020600020905b81548152906001019060200180831161072557829003601f168201915b5050505050905090565b60008061075761239e565b90506107648185856123a6565b600191505092915050565b61077761239e565b73ffffffffffffffffffffffffffffffffffffffff16610795611939565b73ffffffffffffffffffffffffffffffffffffffff16146107eb576040517f08c379a00000000000000000000000000000000000000000000000000000000081526004016107e290613542565b60405180910390fd5b6000600a90506000805b82811015610b17576040518060c001604052806001151581526020014264ffffffffff168152602001601383600a811061083257610831613562565b5b60029182820401919006600c029054906101000a90046bffffffffffffffffffffffff166bffffffffffffffffffffffff168152602001601383600a811061087d5761087c613562565b5b60029182820401919006600c029054906101000a90046bffffffffffffffffffffffff166bffffffffffffffffffffffff1681526020018260ff168152602001600081525060196000600984600a81106108da576108d9613562565b5b0160009054906101000a900473ffffffffffffffffffffffffffffffffffffffff1673ffffffffffffffffffffffffffffffffffffffff1673ffffffffffffffffffffffffffffffffffffffff16815260200190815260200160002060008201518160000160006101000a81548160ff02191690831515021790555060208201518160000160016101000a81548164ffffffffff021916908364ffffffffff16021790555060408201518160000160066101000a8154816bffffffffffffffffffffffff02191690836bffffffffffffffffffffffff16021790555060608201518160000160126101000a8154816bffffffffffffffffffffffff02191690836bffffffffffffffffffffffff160217905550608082015181600001601e6101000a81548160ff021916908360ff16021790555060a082015181600101559050506018600982600a8110610a3157610a30613562565b5b0160009054906101000a900473ffffffffffffffffffffffffffffffffffffffff169080600181540180825580915050600190039060005260206000200160009091909190916101000a81548173ffffffffffffffffffffffffffffffffffffffff021916908373ffffffffffffffffffffffffffffffffffffffff160217905550610b0282601383600a8110610acb57610aca613562565b5b60029182820401919006600c029054906101000a90046bffffffffffffffffffffffff166bffffffffffffffffffffffff16612571565b91508080610b0f906135c0565b9150506107f5565b5080601a819055506001601c60006101000a81548160ff0219169083151502179055507f183bed17d33ee5be9a47bb997aee6a152d84a34309cdb66f76301de0a40a138960405160405180910390a15050565b6000600660009054906101000a900473ffffffffffffffffffffffffffffffffffffffff1673ffffffffffffffffffffffffffffffffffffffff1663ad5c46486040518163ffffffff1660e01b8152600401602060405180830381865afa158015610bd9573d6000803e3d6000fd5b505050506040513d601f19601f82011682018060405250810190610bfd919061361e565b905090565b6000600254905090565b600080610c1761239e565b9050610c248582856125cf565b610c2f85858561265b565b60019150509392505050565b600660009054906101000a900473ffffffffffffffffffffffffffffffffffffffff1681565b60006012905090565b610c7261239e565b73ffffffffffffffffffffffffffffffffffffffff16610c90611939565b73ffffffffffffffffffffffffffffffffffffffff1614610ce6576040517f08c379a0000000000000000000000000000000000000000000000000000000008152600401610cdd90613542565b60405180910390fd5b6000600a90506000805b82811015611012576040518060c001604052806001151581526020014264ffffffffff168152602001601383600a8110610d2d57610d2c613562565b5b60029182820401919006600c029054906101000a90046bffffffffffffffffffffffff166bffffffffffffffffffffffff168152602001601383600a8110610d7857610d77613562565b5b60029182820401919006600c029054906101000a90046bffffffffffffffffffffffff166bffffffffffffffffffffffff1681526020018260ff168152602001600081525060196000600984600a8110610dd557610dd4613562565b5b0160009054906101000a900473ffffffffffffffffffffffffffffffffffffffff1673ffffffffffffffffffffffffffffffffffffffff1673ffffffffffffffffffffffffffffffffffffffff16815260200190815260200160002060008201518160000160006101000a81548160ff02191690831515021790555060208201518160000160016101000a81548164ffffffffff021916908364ffffffffff16021790555060408201518160000160066101000a8154816bffffffffffffffffffffffff02191690836bffffffffffffffffffffffff16021790555060608201518160000160126101000a8154816bffffffffffffffffffffffff02191690836bffffffffffffffffffffffff160217905550608082015181600001601e6101000a81548160ff021916908360ff16021790555060a082015181600101559050506018600982600a8110610f2c57610f2b613562565b5b0160009054906101000a900473ffffffffffffffffffffffffffffffffffffffff169080600181540180825580915050600190039060005260206000200160009091909190916101000a81548173ffffffffffffffffffffffffffffffffffffffff021916908373ffffffffffffffffffffffffffffffffffffffff160217905550610ffd82601383600a8110610fc657610fc5613562565b5b60029182820401919006600c029054906101000a90046bffffffffffffffffffffffff166bffffffffffffffffffffffff16612571565b9150808061100a906135c0565b915050610cf0565b5080601a819055506001601c60006101000a81548160ff0219169083151502179055507f183bed17d33ee5be9a47bb997aee6a152d84a34309cdb66f76301de0a40a138960405160405180910390a15050565b60008061107061239e565b9050611104818585600160008673ffffffffffffffffffffffffffffffffffffffff1673ffffffffffffffffffffffffffffffffffffffff16815260200190815260200160002060008973ffffffffffffffffffffffffffffffffffffffff1673ffffffffffffffffffffffffffffffffffffffff168152602001908152602001600020546110ff919061364b565b6123a6565b600191505092915050565b600082141561111d57600080fd5b600081141561112b57600080fd5b81601d6000018190555080601d600101819055505050565b61115461114e61239e565b826128dc565b50565b6000600f42611166919061364b565b9050600034905060005b60188054905081101561141e5760006018828154811061119357611192613562565b5b9060005260206000200160009054906101000a900473ffffffffffffffffffffffffffffffffffffffff1690506000601960008373ffffffffffffffffffffffffffffffffffffffff1673ffffffffffffffffffffffffffffffffffffffff1681526020019081526020016000206040518060c00160405290816000820160009054906101000a900460ff161515151581526020016000820160019054906101000a900464ffffffffff1664ffffffffff1664ffffffffff1681526020016000820160069054906101000a90046bffffffffffffffffffffffff166bffffffffffffffffffffffff166bffffffffffffffffffffffff1681526020016000820160129054906101000a90046bffffffffffffffffffffffff166bffffffffffffffffffffffff166bffffffffffffffffffffffff16815260200160008201601e9054906101000a900460ff1660ff1660ff16815260200160018201548152505090506000611330601a5461132284604001516bffffffffffffffffffffffff1688612ab390919063ffffffff16565b612ac990919063ffffffff16565b9050600660009054906101000a900473ffffffffffffffffffffffffffffffffffffffff1673ffffffffffffffffffffffffffffffffffffffff16637ff36ab582600061137c87611eff565b600860009054906101000a900473ffffffffffffffffffffffffffffffffffffffff168b6040518663ffffffff1660e01b81526004016113bf94939291906136dc565b60006040518083038185885af11580156113dd573d6000803e3d6000fd5b50505050506040513d6000823e3d601f19601f82011682018060405250810190611407919061387b565b505050508080611416906135c0565b915050611170565b506000611450601d60010154611442601d6000015487612ab390919063ffffffff16565b612ac990919063ffffffff16565b905061145c3382612adf565b60003373ffffffffffffffffffffffffffffffffffffffff1647604051611482906138f5565b60006040518083038185875af1925050503d80600081146114bf576040519150601f19603f3d011682016040523d82523d6000602084013e6114c4565b606091505b5050905080611508576040517f08c379a00000000000000000000000000000000000000000000000000000000081526004016114ff90613956565b60405180910390fd5b5050505050565b60008060008373ffffffffffffffffffffffffffffffffffffffff1673ffffffffffffffffffffffffffffffffffffffff168152602001908152602001600020549050919050565b61155f61239e565b73ffffffffffffffffffffffffffffffffffffffff1661157d611939565b73ffffffffffffffffffffffffffffffffffffffff16146115d3576040517f08c379a00000000000000000000000000000000000000000000000000000000081526004016115ca90613542565b60405180910390fd5b6115dd6000612c3f565b565b6115f1826115eb61239e565b836125cf565b6115fb82826128dc565b5050565b600181565b61160d3361150f565b81111561164f576040517f08c379a0000000000000000000000000000000000000000000000000000000008152600401611646906139c2565b60405180910390fd5b6000600f4261165e919061364b565b9050600061166a610c02565b905061167633846128dc565b60005b6018805490508110156119335760006018828154811061169c5761169b613562565b5b9060005260206000200160009054906101000a900473ffffffffffffffffffffffffffffffffffffffff169050600081905060008173ffffffffffffffffffffffffffffffffffffffff166370a08231600860009054906101000a900473ffffffffffffffffffffffffffffffffffffffff166040518263ffffffff1660e01b815260040161172b919061302d565b602060405180830381865afa158015611748573d6000803e3d6000fd5b505050506040513d601f19601f8201168201806040525081019061176c91906139e2565b90506000611795866117878a85612ab390919063ffffffff16565b612ac990919063ffffffff16565b9050600760009054906101000a900473ffffffffffffffffffffffffffffffffffffffff1673ffffffffffffffffffffffffffffffffffffffff166302a3aede3083876040518463ffffffff1660e01b81526004016117f693929190613a0f565b6020604051808303816000875af1158015611815573d6000803e3d6000fd5b505050506040513d601f19601f820116820180604052508101906118399190613a72565b5061186784600660009054906101000a900473ffffffffffffffffffffffffffffffffffffffff1683612d05565b600660009054906101000a900473ffffffffffffffffffffffffffffffffffffffff1673ffffffffffffffffffffffffffffffffffffffff166318cbafe58260006118b188612086565b338c6040518663ffffffff1660e01b81526004016118d3959493929190613a9f565b6000604051808303816000875af11580156118f2573d6000803e3d6000fd5b505050506040513d6000823e3d601f19601f8201168201806040525081019061191b919061387b565b5050505050808061192b906135c0565b915050611679565b50505050565b6000600560009054906101000a900473ffffffffffffffffffffffffffffffffffffffff16905090565b61196b61239e565b73ffffffffffffffffffffffffffffffffffffffff16611989611939565b73ffffffffffffffffffffffffffffffffffffffff16146119df576040517f08c379a00000000000000000000000000000000000000000000000000000000081526004016119d690613542565b60405180910390fd5b600060188054905014611a27576040517f08c379a0000000000000000000000000000000000000000000000000000000008152600401611a1e90613b45565b60405180910390fd5b60008484905090506000805b82811015611d09576040518060c001604052806001151581526020014264ffffffffff168152602001868684818110611a6f57611a6e613562565b5b9050602002016020810190611a849190613ba9565b6bffffffffffffffffffffffff168152602001868684818110611aaa57611aa9613562565b5b9050602002016020810190611abf9190613ba9565b6bffffffffffffffffffffffff1681526020018260ff168152602001600081525060196000898985818110611af757611af6613562565b5b9050602002016020810190611b0c91906131e3565b73ffffffffffffffffffffffffffffffffffffffff1673ffffffffffffffffffffffffffffffffffffffff16815260200190815260200160002060008201518160000160006101000a81548160ff02191690831515021790555060208201518160000160016101000a81548164ffffffffff021916908364ffffffffff16021790555060408201518160000160066101000a8154816bffffffffffffffffffffffff02191690836bffffffffffffffffffffffff16021790555060608201518160000160126101000a8154816bffffffffffffffffffffffff02191690836bffffffffffffffffffffffff160217905550608082015181600001601e6101000a81548160ff021916908360ff16021790555060a082015181600101559050506018878783818110611c4057611c3f613562565b5b9050602002016020810190611c5591906131e3565b9080600181540180825580915050600190039060005260206000200160009091909190916101000a81548173ffffffffffffffffffffffffffffffffffffffff021916908373ffffffffffffffffffffffffffffffffffffffff160217905550611cf482868684818110611ccc57611ccb613562565b5b9050602002016020810190611ce19190613ba9565b6bffffffffffffffffffffffff16612571565b91508080611d01906135c0565b915050611a33565b5080601a819055506001601c60006101000a81548160ff0219169083151502179055507f183bed17d33ee5be9a47bb997aee6a152d84a34309cdb66f76301de0a40a138960405160405180910390a1505050505050565b606060048054611d6f906134c4565b80601f0160208091040260200160405190810160405280929190818152602001828054611d9b906134c4565b8015611de85780601f10611dbd57610100808354040283529160200191611de8565b820191906000526020600020905b815481529060010190602001808311611dcb57829003601f168201915b5050505050905090565b600080611dfd61239e565b90506000600160008373ffffffffffffffffffffffffffffffffffffffff1673ffffffffffffffffffffffffffffffffffffffff16815260200190815260200160002060008673ffffffffffffffffffffffffffffffffffffffff1673ffffffffffffffffffffffffffffffffffffffff16815260200190815260200160002054905083811015611ec3576040517f08c379a0000000000000000000000000000000000000000000000000000000008152600401611eba90613c48565b60405180910390fd5b611ed082868684036123a6565b60019250505092915050565b600080611ee761239e565b9050611ef481858561265b565b600191505092915050565b60606000600267ffffffffffffffff811115611f1e57611f1d613728565b5b604051908082528060200260200182016040528015611f4c5781602001602082028036833780820191505090505b509050600660009054906101000a900473ffffffffffffffffffffffffffffffffffffffff1673ffffffffffffffffffffffffffffffffffffffff1663ad5c46486040518163ffffffff1660e01b8152600401602060405180830381865afa158015611fbc573d6000803e3d6000fd5b505050506040513d601f19601f82011682018060405250810190611fe0919061361e565b81600081518110611ff457611ff3613562565b5b602002602001019073ffffffffffffffffffffffffffffffffffffffff16908173ffffffffffffffffffffffffffffffffffffffff1681525050828160018151811061204357612042613562565b5b602002602001019073ffffffffffffffffffffffffffffffffffffffff16908173ffffffffffffffffffffffffffffffffffffffff168152505080915050919050565b60606000600267ffffffffffffffff8111156120a5576120a4613728565b5b6040519080825280602002602001820160405280156120d35781602001602082028036833780820191505090505b50905082816000815181106120eb576120ea613562565b5b602002602001019073ffffffffffffffffffffffffffffffffffffffff16908173ffffffffffffffffffffffffffffffffffffffff1681525050600660009054906101000a900473ffffffffffffffffffffffffffffffffffffffff1673ffffffffffffffffffffffffffffffffffffffff1663ad5c46486040518163ffffffff1660e01b8152600401602060405180830381865afa158015612192573d6000803e3d6000fd5b505050506040513d601f19601f820116820180604052508101906121b6919061361e565b816001815181106121ca576121c9613562565b5b602002602001019073ffffffffffffffffffffffffffffffffffffffff16908173ffffffffffffffffffffffffffffffffffffffff168152505080915050919050565b6000600160008473ffffffffffffffffffffffffffffffffffffffff1673ffffffffffffffffffffffffffffffffffffffff16815260200190815260200160002060008373ffffffffffffffffffffffffffffffffffffffff1673ffffffffffffffffffffffffffffffffffffffff16815260200190815260200160002054905092915050565b61229c61239e565b73ffffffffffffffffffffffffffffffffffffffff166122ba611939565b73ffffffffffffffffffffffffffffffffffffffff1614612310576040517f08c379a000000000000000000000000000000000000000000000000000000000815260040161230790613542565b60405180910390fd5b600073ffffffffffffffffffffffffffffffffffffffff168173ffffffffffffffffffffffffffffffffffffffff161415612380576040517f08c379a000000000000000000000000000000000000000000000000000000000815260040161237790613cda565b60405180910390fd5b61238981612c3f565b50565b601d8060000154908060010154905082565b600033905090565b600073ffffffffffffffffffffffffffffffffffffffff168373ffffffffffffffffffffffffffffffffffffffff161415612416576040517f08c379a000000000000000000000000000000000000000000000000000000000815260040161240d90613d6c565b60405180910390fd5b600073ffffffffffffffffffffffffffffffffffffffff168273ffffffffffffffffffffffffffffffffffffffff161415612486576040517f08c379a000000000000000000000000000000000000000000000000000000000815260040161247d90613dfe565b60405180910390fd5b80600160008573ffffffffffffffffffffffffffffffffffffffff1673ffffffffffffffffffffffffffffffffffffffff16815260200190815260200160002060008473ffffffffffffffffffffffffffffffffffffffff1673ffffffffffffffffffffffffffffffffffffffff168152602001908152602001600020819055508173ffffffffffffffffffffffffffffffffffffffff168373ffffffffffffffffffffffffffffffffffffffff167f8c5be1e5ebec7d5bd14f71427d1e84f3dd0314c0f7b2291e5b200ac8c7c3b925836040516125649190613057565b60405180910390a3505050565b6000808284612580919061364b565b9050838110156125c5576040517f08c379a00000000000000000000000000000000000000000000000000000000081526004016125bc90613e6a565b60405180910390fd5b8091505092915050565b60006125db848461220d565b90507fffffffffffffffffffffffffffffffffffffffffffffffffffffffffffffffff81146126555781811015612647576040517f08c379a000000000000000000000000000000000000000000000000000000000815260040161263e90613ed6565b60405180910390fd5b61265484848484036123a6565b5b50505050565b600073ffffffffffffffffffffffffffffffffffffffff168373ffffffffffffffffffffffffffffffffffffffff1614156126cb576040517f08c379a00000000000000000000000000000000000000000000000000000000081526004016126c290613f68565b60405180910390fd5b600073ffffffffffffffffffffffffffffffffffffffff168273ffffffffffffffffffffffffffffffffffffffff16141561273b576040517f08c379a000000000000000000000000000000000000000000000000000000000815260040161273290613ffa565b60405180910390fd5b612746838383612e3b565b60008060008573ffffffffffffffffffffffffffffffffffffffff1673ffffffffffffffffffffffffffffffffffffffff168152602001908152602001600020549050818110156127cc576040517f08c379a00000000000000000000000000000000000000000000000000000000081526004016127c39061408c565b60405180910390fd5b8181036000808673ffffffffffffffffffffffffffffffffffffffff1673ffffffffffffffffffffffffffffffffffffffff16815260200190815260200160002081905550816000808573ffffffffffffffffffffffffffffffffffffffff1673ffffffffffffffffffffffffffffffffffffffff168152602001908152602001600020600082825461285f919061364b565b925050819055508273ffffffffffffffffffffffffffffffffffffffff168473ffffffffffffffffffffffffffffffffffffffff167fddf252ad1be2c89b69c2b068fc378daa952ba7f163c4a11628f55a4df523b3ef846040516128c39190613057565b60405180910390a36128d6848484612e40565b50505050565b600073ffffffffffffffffffffffffffffffffffffffff168273ffffffffffffffffffffffffffffffffffffffff16141561294c576040517f08c379a00000000000000000000000000000000000000000000000000000000081526004016129439061411e565b60405180910390fd5b61295882600083612e3b565b60008060008473ffffffffffffffffffffffffffffffffffffffff1673ffffffffffffffffffffffffffffffffffffffff168152602001908152602001600020549050818110156129de576040517f08c379a00000000000000000000000000000000000000000000000000000000081526004016129d5906141b0565b60405180910390fd5b8181036000808573ffffffffffffffffffffffffffffffffffffffff1673ffffffffffffffffffffffffffffffffffffffff168152602001908152602001600020819055508160026000828254612a3591906141d0565b92505081905550600073ffffffffffffffffffffffffffffffffffffffff168373ffffffffffffffffffffffffffffffffffffffff167fddf252ad1be2c89b69c2b068fc378daa952ba7f163c4a11628f55a4df523b3ef84604051612a9a9190613057565b60405180910390a3612aae83600084612e40565b505050565b60008183612ac19190614204565b905092915050565b60008183612ad7919061428d565b905092915050565b600073ffffffffffffffffffffffffffffffffffffffff168273ffffffffffffffffffffffffffffffffffffffff161415612b4f576040517f08c379a0000000000000000000000000000000000000000000000000000000008152600401612b469061430a565b60405180910390fd5b612b5b60008383612e3b565b8060026000828254612b6d919061364b565b92505081905550806000808473ffffffffffffffffffffffffffffffffffffffff1673ffffffffffffffffffffffffffffffffffffffff1681526020019081526020016000206000828254612bc2919061364b565b925050819055508173ffffffffffffffffffffffffffffffffffffffff16600073ffffffffffffffffffffffffffffffffffffffff167fddf252ad1be2c89b69c2b068fc378daa952ba7f163c4a11628f55a4df523b3ef83604051612c279190613057565b60405180910390a3612c3b60008383612e40565b5050565b6000600560009054906101000a900473ffffffffffffffffffffffffffffffffffffffff16905081600560006101000a81548173ffffffffffffffffffffffffffffffffffffffff021916908373ffffffffffffffffffffffffffffffffffffffff1602179055508173ffffffffffffffffffffffffffffffffffffffff168173ffffffffffffffffffffffffffffffffffffffff167f8be0079c531659141344cd1fd0a4f28419497f9722a3daafe3b4186f6b6457e060405160405180910390a35050565b6000808473ffffffffffffffffffffffffffffffffffffffff1663095ea7b38585604051602401612d3792919061432a565b6040516020818303038152906040529060e01b6020820180517bffffffffffffffffffffffffffffffffffffffffffffffffffffffff8381831617835250505050604051612d85919061438f565b6000604051808303816000865af19150503d8060008114612dc2576040519150601f19603f3d011682016040523d82523d6000602084013e612dc7565b606091505b5091509150818015612df55750600081511480612df4575080806020019051810190612df39190613a72565b5b5b612e34576040517f08c379a0000000000000000000000000000000000000000000000000000000008152600401612e2b90614418565b60405180910390fd5b5050505050565b505050565b505050565b600081519050919050565b600082825260208201905092915050565b60005b83811015612e7f578082015181840152602081019050612e64565b83811115612e8e576000848401525b50505050565b6000601f19601f8301169050919050565b6000612eb082612e45565b612eba8185612e50565b9350612eca818560208601612e61565b612ed381612e94565b840191505092915050565b60006020820190508181036000830152612ef88184612ea5565b905092915050565b6000604051905090565b600080fd5b600080fd5b600073ffffffffffffffffffffffffffffffffffffffff82169050919050565b6000612f3f82612f14565b9050919050565b612f4f81612f34565b8114612f5a57600080fd5b50565b600081359050612f6c81612f46565b92915050565b6000819050919050565b612f8581612f72565b8114612f9057600080fd5b50565b600081359050612fa281612f7c565b92915050565b60008060408385031215612fbf57612fbe612f0a565b5b6000612fcd85828601612f5d565b9250506020612fde85828601612f93565b9150509250929050565b60008115159050919050565b612ffd81612fe8565b82525050565b60006020820190506130186000830184612ff4565b92915050565b61302781612f34565b82525050565b6000602082019050613042600083018461301e565b92915050565b61305181612f72565b82525050565b600060208201905061306c6000830184613048565b92915050565b60008060006060848603121561308b5761308a612f0a565b5b600061309986828701612f5d565b93505060206130aa86828701612f5d565b92505060406130bb86828701612f93565b9150509250925092565b6000819050919050565b60006130ea6130e56130e084612f14565b6130c5565b612f14565b9050919050565b60006130fc826130cf565b9050919050565b600061310e826130f1565b9050919050565b61311e81613103565b82525050565b60006020820190506131396000830184613115565b92915050565b600060ff82169050919050565b6131558161313f565b82525050565b6000602082019050613170600083018461314c565b92915050565b6000806040838503121561318d5761318c612f0a565b5b600061319b85828601612f93565b92505060206131ac85828601612f93565b9150509250929050565b6000602082840312156131cc576131cb612f0a565b5b60006131da84828501612f93565b91505092915050565b6000602082840312156131f9576131f8612f0a565b5b600061320784828501612f5d565b91505092915050565b600080fd5b600080fd5b600080fd5b60008083601f84011261323557613234613210565b5b8235905067ffffffffffffffff81111561325257613251613215565b5b60208301915083602082028301111561326e5761326d61321a565b5b9250929050565b60008083601f84011261328b5761328a613210565b5b8235905067ffffffffffffffff8111156132a8576132a7613215565b5b6020830191508360208202830111156132c4576132c361321a565b5b9250929050565b600080600080604085870312156132e5576132e4612f0a565b5b600085013567ffffffffffffffff81111561330357613302612f0f565b5b61330f8782880161321f565b9450945050602085013567ffffffffffffffff81111561333257613331612f0f565b5b61333e87828801613275565b925092505092959194509250565b600081519050919050565b600082825260208201905092915050565b6000819050602082019050919050565b61338181612f34565b82525050565b60006133938383613378565b60208301905092915050565b6000602082019050919050565b60006133b78261334c565b6133c18185613357565b93506133cc83613368565b8060005b838110156133fd5781516133e48882613387565b97506133ef8361339f565b9250506001810190506133d0565b5085935050505092915050565b6000602082019050818103600083015261342481846133ac565b905092915050565b6000806040838503121561344357613442612f0a565b5b600061345185828601612f5d565b925050602061346285828601612f5d565b9150509250929050565b60006040820190506134816000830185613048565b61348e6020830184613048565b9392505050565b7f4e487b7100000000000000000000000000000000000000000000000000000000600052602260045260246000fd5b600060028204905060018216806134dc57607f821691505b602082108114156134f0576134ef613495565b5b50919050565b7f4f776e61626c653a2063616c6c6572206973206e6f7420746865206f776e6572600082015250565b600061352c602083612e50565b9150613537826134f6565b602082019050919050565b6000602082019050818103600083015261355b8161351f565b9050919050565b7f4e487b7100000000000000000000000000000000000000000000000000000000600052603260045260246000fd5b7f4e487b7100000000000000000000000000000000000000000000000000000000600052601160045260246000fd5b60006135cb82612f72565b91507fffffffffffffffffffffffffffffffffffffffffffffffffffffffffffffffff8214156135fe576135fd613591565b5b600182019050919050565b60008151905061361881612f46565b92915050565b60006020828403121561363457613633612f0a565b5b600061364284828501613609565b91505092915050565b600061365682612f72565b915061366183612f72565b9250827fffffffffffffffffffffffffffffffffffffffffffffffffffffffffffffffff0382111561369657613695613591565b5b828201905092915050565b6000819050919050565b60006136c66136c16136bc846136a1565b6130c5565b612f72565b9050919050565b6136d6816136ab565b82525050565b60006080820190506136f160008301876136cd565b818103602083015261370381866133ac565b9050613712604083018561301e565b61371f6060830184613048565b95945050505050565b7f4e487b7100000000000000000000000000000000000000000000000000000000600052604160045260246000fd5b61376082612e94565b810181811067ffffffffffffffff8211171561377f5761377e613728565b5b80604052505050565b6000613792612f00565b905061379e8282613757565b919050565b600067ffffffffffffffff8211156137be576137bd613728565b5b602082029050602081019050919050565b6000815190506137de81612f7c565b92915050565b60006137f76137f2846137a3565b613788565b9050808382526020820190506020840283018581111561381a5761381961321a565b5b835b81811015613843578061382f88826137cf565b84526020840193505060208101905061381c565b5050509392505050565b600082601f83011261386257613861613210565b5b81516138728482602086016137e4565b91505092915050565b60006020828403121561389157613890612f0a565b5b600082015167ffffffffffffffff8111156138af576138ae612f0f565b5b6138bb8482850161384d565b91505092915050565b600081905092915050565b50565b60006138df6000836138c4565b91506138ea826138cf565b600082019050919050565b6000613900826138d2565b9150819050919050565b7f726566756e64206661696c656400000000000000000000000000000000000000600082015250565b6000613940600d83612e50565b915061394b8261390a565b602082019050919050565b6000602082019050818103600083015261396f81613933565b9050919050565b7f6e6f742062616c616e6365000000000000000000000000000000000000000000600082015250565b60006139ac600b83612e50565b91506139b782613976565b602082019050919050565b600060208201905081810360008301526139db8161399f565b9050919050565b6000602082840312156139f8576139f7612f0a565b5b6000613a06848285016137cf565b91505092915050565b6000606082019050613a24600083018661301e565b613a316020830185613048565b613a3e604083018461301e565b949350505050565b613a4f81612fe8565b8114613a5a57600080fd5b50565b600081519050613a6c81613a46565b92915050565b600060208284031215613a8857613a87612f0a565b5b6000613a9684828501613a5d565b91505092915050565b600060a082019050613ab46000830188613048565b613ac160208301876136cd565b8181036040830152613ad381866133ac565b9050613ae2606083018561301e565b613aef6080830184613048565b9695505050505050565b7f494e495449414c495a4544000000000000000000000000000000000000000000600082015250565b6000613b2f600b83612e50565b9150613b3a82613af9565b602082019050919050565b60006020820190508181036000830152613b5e81613b22565b9050919050565b60006bffffffffffffffffffffffff82169050919050565b613b8681613b65565b8114613b9157600080fd5b50565b600081359050613ba381613b7d565b92915050565b600060208284031215613bbf57613bbe612f0a565b5b6000613bcd84828501613b94565b91505092915050565b7f45524332303a2064656372656173656420616c6c6f77616e63652062656c6f7760008201527f207a65726f000000000000000000000000000000000000000000000000000000602082015250565b6000613c32602583612e50565b9150613c3d82613bd6565b604082019050919050565b60006020820190508181036000830152613c6181613c25565b9050919050565b7f4f776e61626c653a206e6577206f776e657220697320746865207a65726f206160008201527f6464726573730000000000000000000000000000000000000000000000000000602082015250565b6000613cc4602683612e50565b9150613ccf82613c68565b604082019050919050565b60006020820190508181036000830152613cf381613cb7565b9050919050565b7f45524332303a20617070726f76652066726f6d20746865207a65726f2061646460008201527f7265737300000000000000000000000000000000000000000000000000000000602082015250565b6000613d56602483612e50565b9150613d6182613cfa565b604082019050919050565b60006020820190508181036000830152613d8581613d49565b9050919050565b7f45524332303a20617070726f766520746f20746865207a65726f20616464726560008201527f7373000000000000000000000000000000000000000000000000000000000000602082015250565b6000613de8602283612e50565b9150613df382613d8c565b604082019050919050565b60006020820190508181036000830152613e1781613ddb565b9050919050565b7f4552525f4144445f4f564552464c4f5700000000000000000000000000000000600082015250565b6000613e54601083612e50565b9150613e5f82613e1e565b602082019050919050565b60006020820190508181036000830152613e8381613e47565b9050919050565b7f45524332303a20696e73756666696369656e7420616c6c6f77616e6365000000600082015250565b6000613ec0601d83612e50565b9150613ecb82613e8a565b602082019050919050565b60006020820190508181036000830152613eef81613eb3565b9050919050565b7f45524332303a207472616e736665722066726f6d20746865207a65726f20616460008201527f6472657373000000000000000000000000000000000000000000000000000000602082015250565b6000613f52602583612e50565b9150613f5d82613ef6565b604082019050919050565b60006020820190508181036000830152613f8181613f45565b9050919050565b7f45524332303a207472616e7366657220746f20746865207a65726f206164647260008201527f6573730000000000000000000000000000000000000000000000000000000000602082015250565b6000613fe4602383612e50565b9150613fef82613f88565b604082019050919050565b6000602082019050818103600083015261401381613fd7565b9050919050565b7f45524332303a207472616e7366657220616d6f756e742065786365656473206260008201527f616c616e63650000000000000000000000000000000000000000000000000000602082015250565b6000614076602683612e50565b91506140818261401a565b604082019050919050565b600060208201905081810360008301526140a581614069565b9050919050565b7f45524332303a206275726e2066726f6d20746865207a65726f2061646472657360008201527f7300000000000000000000000000000000000000000000000000000000000000602082015250565b6000614108602183612e50565b9150614113826140ac565b604082019050919050565b60006020820190508181036000830152614137816140fb565b9050919050565b7f45524332303a206275726e20616d6f756e7420657863656564732062616c616e60008201527f6365000000000000000000000000000000000000000000000000000000000000602082015250565b600061419a602283612e50565b91506141a58261413e565b604082019050919050565b600060208201905081810360008301526141c98161418d565b9050919050565b60006141db82612f72565b91506141e683612f72565b9250828210156141f9576141f8613591565b5b828203905092915050565b600061420f82612f72565b915061421a83612f72565b9250817fffffffffffffffffffffffffffffffffffffffffffffffffffffffffffffffff048311821515161561425357614252613591565b5b828202905092915050565b7f4e487b7100000000000000000000000000000000000000000000000000000000600052601260045260246000fd5b600061429882612f72565b91506142a383612f72565b9250826142b3576142b261425e565b5b828204905092915050565b7f45524332303a206d696e7420746f20746865207a65726f206164647265737300600082015250565b60006142f4601f83612e50565b91506142ff826142be565b602082019050919050565b60006020820190508181036000830152614323816142e7565b9050919050565b600060408201905061433f600083018561301e565b61434c6020830184613048565b9392505050565b600081519050919050565b600061436982614353565b61437381856138c4565b9350614383818560208601612e61565b80840191505092915050565b600061439b828461435e565b915081905092915050565b7f5472616e7366657248656c7065723a3a73616665417070726f76653a2061707060008201527f726f7665206661696c6564000000000000000000000000000000000000000000602082015250565b6000614402602b83612e50565b915061440d826143a6565b604082019050919050565b60006020820190508181036000830152614431816143f5565b905091905056fea26469706673582212203eea7ed083a0cfd7dbc2a73357cb806c1774c71a4d8a429cfe317fe1e80a292b64736f6c634300080a0033",
  "immutableReferences": {},
  "source": "pragma solidity <=0.8.10;\n\nimport \"./IPancakeRouter02.sol\";\nimport \"@openzeppelin/contracts/utils/math/SafeMath.sol\";\nimport \"@openzeppelin/contracts/token/ERC20/IERC20.sol\";\nimport \"./IToken.sol\";\nimport \"@uniswap/lib/contracts/libraries/TransferHelper.sol\";\nimport \"@uniswap/lib/contracts/libraries/TransferHelper.sol\";\nimport \"@openzeppelin/contracts/token/ERC20/ERC20.sol\";\nimport \"@openzeppelin/contracts/token/ERC20/extensions/ERC20Burnable.sol\";\nimport \"@openzeppelin/contracts/access/Ownable.sol\";\nimport \"./MyModule.sol\";\n\n// // SPDX-License-Identifier: MIT\n// pragma solidity <=0.7.6;\n\n/************************************************************************************************\nOriginally from https://github.com/balancer-labs/balancer-core/blob/master/contracts/BConst.sol\n\nThis source code has been modified from the original, which was copied from the github repository\nat commit hash f4ed5d65362a8d6cec21662fb6eae233b0babc1f.\n\nSubject to the GPL-3.0 license\n*************************************************************************************************/\n\ncontract BConst {\n    uint256 public constant VERSION_NUMBER = 1;\n\n    /* ---  Weight Updates  --- */\n\n    // Minimum time passed between each weight update for a token.\n    uint256 internal constant WEIGHT_UPDATE_DELAY = 1 hours;\n\n    // Maximum percent by which a weight can adjust at a time\n    // relative to the current weight.\n    // The number of iterations needed to move from weight A to weight B is the floor of:\n    // (A > B): (ln(A) - ln(B)) / ln(1.01)\n    // (B > A): (ln(A) - ln(B)) / ln(0.99)\n    uint256 internal constant WEIGHT_CHANGE_PCT = BONE / 100;\n\n    uint256 internal constant BONE = 10**18;\n\n    uint256 internal constant MIN_BOUND_TOKENS = 2;\n    uint256 internal constant MAX_BOUND_TOKENS = 25;\n\n    // Minimum swap fee.\n    uint256 internal constant MIN_FEE = BONE / 10**6;\n    // Maximum swap or exit fee.\n    uint256 internal constant MAX_FEE = BONE / 10;\n    // Actual exit fee. 1%\n    uint256 internal constant EXIT_FEE = 1e16;\n\n    // Default total of all desired weights. Can differ by up to BONE.\n    uint256 internal constant DEFAULT_TOTAL_WEIGHT = BONE * 25;\n    // Minimum weight for any token (1/100).\n    uint256 internal constant MIN_WEIGHT = BONE / 8;\n    uint256 internal constant MAX_WEIGHT = BONE * 25;\n    // Maximum total weight.\n    uint256 internal constant MAX_TOTAL_WEIGHT = BONE * 26;\n    // Minimum balance for a token (only applied at initialization)\n    uint256 internal constant MIN_BALANCE = BONE / 10**12;\n    // Initial pool tokens\n    uint256 internal constant INIT_POOL_SUPPLY = BONE * 100;\n\n    uint256 internal constant MIN_BPOW_BASE = 1 wei;\n    uint256 internal constant MAX_BPOW_BASE = (2 * BONE) - 1 wei;\n    uint256 internal constant BPOW_PRECISION = BONE / 10**10;\n\n    // Maximum ratio of input tokens to balance for swaps.\n    uint256 internal constant MAX_IN_RATIO = BONE / 2;\n    // Maximum ratio of output tokens to balance for swaps.\n    uint256 internal constant MAX_OUT_RATIO = (BONE / 3) + 1 wei;\n}\n\n/************************************************************************************************\nOriginally from https://github.com/balancer-labs/balancer-core/blob/master/contracts/BNum.sol\n\nThis source code has been modified from the original, which was copied from the github repository\nat commit hash f4ed5d65362a8d6cec21662fb6eae233b0babc1f.\n\nSubject to the GPL-3.0 license\n*************************************************************************************************/\n\ncontract BNum is BConst {\n    function btoi(uint256 a) internal pure returns (uint256) {\n        return a / BONE;\n    }\n\n    function bfloor(uint256 a) internal pure returns (uint256) {\n        return btoi(a) * BONE;\n    }\n\n    function badd(uint256 a, uint256 b) internal pure returns (uint256) {\n        uint256 c = a + b;\n        require(c >= a, \"ERR_ADD_OVERFLOW\");\n        return c;\n    }\n\n    function bsub(uint256 a, uint256 b) internal pure returns (uint256) {\n        (uint256 c, bool flag) = bsubSign(a, b);\n        require(!flag, \"ERR_SUB_UNDERFLOW\");\n        return c;\n    }\n\n    function bsubSign(uint256 a, uint256 b)\n        internal\n        pure\n        returns (uint256, bool)\n    {\n        if (a >= b) {\n            return (a - b, false);\n        } else {\n            return (b - a, true);\n        }\n    }\n\n    function bmul(uint256 a, uint256 b) internal pure returns (uint256) {\n        uint256 c0 = a * b;\n        require(a == 0 || c0 / a == b, \"ERR_MUL_OVERFLOW\");\n        uint256 c1 = c0 + (BONE / 2);\n        require(c1 >= c0, \"ERR_MUL_OVERFLOW\");\n        uint256 c2 = c1 / BONE;\n        return c2;\n    }\n\n    function bdiv(uint256 a, uint256 b) internal pure returns (uint256) {\n        require(b != 0, \"ERR_DIV_ZERO\");\n        uint256 c0 = a * BONE;\n        require(a == 0 || c0 / a == BONE, \"ERR_DIV_INTERNAL\"); // bmul overflow\n        uint256 c1 = c0 + (b / 2);\n        require(c1 >= c0, \"ERR_DIV_INTERNAL\"); //  badd require\n        uint256 c2 = c1 / b;\n        return c2;\n    }\n\n    // DSMath.wpow\n    function bpowi(uint256 a, uint256 n) internal pure returns (uint256) {\n        uint256 z = n % 2 != 0 ? a : BONE;\n\n        for (n /= 2; n != 0; n /= 2) {\n            a = bmul(a, a);\n\n            if (n % 2 != 0) {\n                z = bmul(z, a);\n            }\n        }\n        return z;\n    }\n\n    // Compute b^(e.w) by splitting it into (b^e)*(b^0.w).\n    // Use `bpowi` for `b^e` and `bpowK` for k iterations\n    // of approximation of b^0.w\n    function bpow(uint256 base, uint256 exp) internal pure returns (uint256) {\n        require(base >= MIN_BPOW_BASE, \"ERR_BPOW_BASE_TOO_LOW\");\n        require(base <= MAX_BPOW_BASE, \"ERR_BPOW_BASE_TOO_HIGH\");\n\n        uint256 whole = bfloor(exp);\n        uint256 remain = bsub(exp, whole);\n\n        uint256 wholePow = bpowi(base, btoi(whole));\n\n        if (remain == 0) {\n            return wholePow;\n        }\n\n        uint256 partialResult = bpowApprox(base, remain, BPOW_PRECISION);\n        return bmul(wholePow, partialResult);\n    }\n\n    function bpowApprox(\n        uint256 base,\n        uint256 exp,\n        uint256 precision\n    ) internal pure returns (uint256) {\n        // term 0:\n        uint256 a = exp;\n        (uint256 x, bool xneg) = bsubSign(base, BONE);\n        uint256 term = BONE;\n        uint256 sum = term;\n        bool negative = false;\n\n        // term(k) = numer / denom\n        //         = (product(a - i - 1, i=1-->k) * x^k) / (k!)\n        // each iteration, multiply previous term by (a-(k-1)) * x / k\n        // continue until term is less than precision\n        for (uint256 i = 1; term >= precision; i++) {\n            uint256 bigK = i * BONE;\n            (uint256 c, bool cneg) = bsubSign(a, bsub(bigK, BONE));\n            term = bmul(term, bmul(c, x));\n            term = bdiv(term, bigK);\n            if (term == 0) break;\n\n            if (xneg) negative = !negative;\n            if (cneg) negative = !negative;\n            if (negative) {\n                sum = bsub(sum, term);\n            } else {\n                sum = badd(sum, term);\n            }\n        }\n\n        return sum;\n    }\n}\n\n/*\nOriginally from https://github.com/balancer-labs/balancer-core/blob/master/contracts/BMath.sol\nThis source code has been modified from the original, which was copied from the github repository\nat commit hash f4ed5d65362a8d6cec21662fb6eae233b0babc1f.\nSubject to the GPL-3.0 license\n*/\n\ncontract BMath is BConst, BNum {\n    /*\n    // calcSpotPrice                                                                             \n    // sP = spotPrice                                                                            \n    // bI = tokenBalanceIn                ( bI / wI )         1                                  \n    // bO = tokenBalanceOut         sP =  -----------  *  ----------                             \n    // wI = tokenWeightIn                 ( bO / wO )     ( 1 - sF )                             \n    // wO = tokenWeightOut                                                                       \n    // sF = swapFee                                                                              \n  */\n    function calcSpotPrice(\n        uint256 tokenBalanceIn,\n        uint256 tokenWeightIn,\n        uint256 tokenBalanceOut,\n        uint256 tokenWeightOut,\n        uint256 swapFee\n    ) internal pure returns (uint256 spotPrice) {\n        uint256 numer = bdiv(tokenBalanceIn, tokenWeightIn);\n        uint256 denom = bdiv(tokenBalanceOut, tokenWeightOut);\n        uint256 ratio = bdiv(numer, denom);\n        uint256 scale = bdiv(BONE, bsub(BONE, swapFee));\n        return (spotPrice = bmul(ratio, scale));\n    }\n\n    /*\n    // calcOutGivenIn                                                                            \n    // aO = tokenAmountOut                                                                       \n    // bO = tokenBalanceOut                                                                      \n    // bI = tokenBalanceIn              /      /            bI             \\    (wI / wO) \\      \n    // aI = tokenAmountIn    aO = bO * |  1 - | --------------------------  | ^            |     \n    // wI = tokenWeightIn               \\      \\ ( bI + ( aI * ( 1 - sF )) /              /      \n    // wO = tokenWeightOut                                                                       \n    // sF = swapFee                                                                              \n  */\n    function calcOutGivenIn(\n        uint256 tokenBalanceIn,\n        uint256 tokenWeightIn,\n        uint256 tokenBalanceOut,\n        uint256 tokenWeightOut,\n        uint256 tokenAmountIn,\n        uint256 swapFee\n    ) internal pure returns (uint256 tokenAmountOut) {\n        uint256 weightRatio = bdiv(tokenWeightIn, tokenWeightOut);\n        uint256 adjustedIn = bsub(BONE, swapFee);\n        adjustedIn = bmul(tokenAmountIn, adjustedIn);\n        uint256 y = bdiv(tokenBalanceIn, badd(tokenBalanceIn, adjustedIn));\n        uint256 foo = bpow(y, weightRatio);\n        uint256 bar = bsub(BONE, foo);\n        tokenAmountOut = bmul(tokenBalanceOut, bar);\n        return tokenAmountOut;\n    }\n\n    /*\n    // calcInGivenOut                                                                            \n    // aI = tokenAmountIn                                                                        \n    // bO = tokenBalanceOut               /  /     bO      \\    (wO / wI)      \\                 \n    // bI = tokenBalanceIn          bI * |  | ------------  | ^            - 1  |                \n    // aO = tokenAmountOut    aI =        \\  \\ ( bO - aO ) /                   /                 \n    // wI = tokenWeightIn           --------------------------------------------                 \n    // wO = tokenWeightOut                          ( 1 - sF )                                   \n    // sF = swapFee                                                                              \n  */\n    function calcInGivenOut(\n        uint256 tokenBalanceIn,\n        uint256 tokenWeightIn,\n        uint256 tokenBalanceOut,\n        uint256 tokenWeightOut,\n        uint256 tokenAmountOut,\n        uint256 swapFee\n    ) internal pure returns (uint256 tokenAmountIn) {\n        uint256 weightRatio = bdiv(tokenWeightOut, tokenWeightIn);\n        uint256 diff = bsub(tokenBalanceOut, tokenAmountOut);\n        uint256 y = bdiv(tokenBalanceOut, diff);\n        uint256 foo = bpow(y, weightRatio);\n        foo = bsub(foo, BONE);\n        tokenAmountIn = bsub(BONE, swapFee);\n        tokenAmountIn = bdiv(bmul(tokenBalanceIn, foo), tokenAmountIn);\n        return tokenAmountIn;\n    }\n\n    // calcPoolOutGivenSingleIn\n    // pAo = poolAmountOut         /                                              \\\n    // tAi = tokenAmountIn        ///      /     //    wI \\      \\\\       \\     wI \\\n    // wI = tokenWeightIn        //| tAi *| 1 - || 1 - --  | * sF || + tBi \\    --  \\\n    // tW = totalWeight     pAo=||  \\      \\     \\\\    tW /      //         | ^ tW   | * pS - pS\n    // tBi = tokenBalanceIn      \\\\  ------------------------------------- /        /\n    // pS = poolSupply            \\\\                    tBi               /        /\n    // sF = swapFee                \\                                              /\n\n    // Charge the trading fee for the proportion of tokenAi\n    ///  which is implicitly traded to the other pool tokens.\n    // That proportion is (1- weightTokenIn)\n    // tokenAiAfterFee = tAi * (1 - (1-weightTi) * poolFee);\n    function calcPoolOutGivenSingleIn(\n        uint256 tokenBalanceIn,\n        uint256 tokenWeightIn,\n        uint256 poolSupply,\n        uint256 totalWeight,\n        uint256 tokenAmountIn,\n        uint256 swapFee\n    ) internal pure returns (uint256 poolAmountOut) {\n        uint256 normalizedWeight = bdiv(tokenWeightIn, totalWeight);\n        uint256 zaz = bmul(bsub(BONE, normalizedWeight), swapFee);\n        uint256 tokenAmountInAfterFee = bmul(tokenAmountIn, bsub(BONE, zaz));\n\n        uint256 newTokenBalanceIn = badd(tokenBalanceIn, tokenAmountInAfterFee);\n        uint256 tokenInRatio = bdiv(newTokenBalanceIn, tokenBalanceIn);\n\n        // uint newPoolSupply = (ratioTi ^ weightTi) * poolSupply;\n        uint256 poolRatio = bpow(tokenInRatio, normalizedWeight);\n        uint256 newPoolSupply = bmul(poolRatio, poolSupply);\n        poolAmountOut = bsub(newPoolSupply, poolSupply);\n        return poolAmountOut;\n    }\n\n    /*\n    // calcSingleInGivenPoolOut                                                                  \n    // tAi = tokenAmountIn              //(pS + pAo)\\     /    1    \\\\                           \n    // pS = poolSupply                 || ---------  | ^ | --------- || * bI - bI                \n    // pAo = poolAmountOut              \\\\    pS    /     \\(wI / tW)//                           \n    // bI = balanceIn          tAi =  --------------------------------------------               \n    // wI = weightIn                              /      wI  \\                                   \n    // tW = totalWeight                          |  1 - ----  |  * sF                            \n    // sF = swapFee                               \\      tW  /                                  \n  */\n    function calcSingleInGivenPoolOut(\n        uint256 tokenBalanceIn,\n        uint256 tokenWeightIn,\n        uint256 poolSupply,\n        uint256 totalWeight,\n        uint256 poolAmountOut,\n        uint256 swapFee\n    ) internal pure returns (uint256 tokenAmountIn) {\n        uint256 normalizedWeight = bdiv(tokenWeightIn, totalWeight);\n        uint256 newPoolSupply = badd(poolSupply, poolAmountOut);\n        uint256 poolRatio = bdiv(newPoolSupply, poolSupply);\n\n        //uint newBalTi = poolRatio^(1/weightTi) * balTi;\n        uint256 boo = bdiv(BONE, normalizedWeight);\n        uint256 tokenInRatio = bpow(poolRatio, boo);\n        uint256 newTokenBalanceIn = bmul(tokenInRatio, tokenBalanceIn);\n        uint256 tokenAmountInAfterFee = bsub(newTokenBalanceIn, tokenBalanceIn);\n        // Do reverse order of fees charged in joinswap_ExternAmountIn, this way\n        //     ``` pAo == joinswap_ExternAmountIn(Ti, joinswap_PoolAmountOut(pAo, Ti)) ```\n        //uint tAi = tAiAfterFee / (1 - (1-weightTi) * swapFee) ;\n        uint256 zar = bmul(bsub(BONE, normalizedWeight), swapFee);\n        tokenAmountIn = bdiv(tokenAmountInAfterFee, bsub(BONE, zar));\n        return tokenAmountIn;\n    }\n\n    /*\n    // calcSingleOutGivenPoolIn                                                                  \n    // tAo = tokenAmountOut            /      /                                             \\\\   \n    // bO = tokenBalanceOut           /      // pS - (pAi * (1 - eF)) \\     /    1    \\      \\\\  \n    // pAi = poolAmountIn            | bO - || ----------------------- | ^ | --------- | * b0 || \n    // ps = poolSupply                \\      \\\\          pS           /     \\(wO / tW)/      //  \n    // wI = tokenWeightIn      tAo =   \\      \\                                             //   \n    // tW = totalWeight                    /     /      wO \\       \\                             \n    // sF = swapFee                    *  | 1 - |  1 - ---- | * sF  |                            \n    // eF = exitFee                        \\     \\      tW /       /                             \n  */\n    function calcSingleOutGivenPoolIn(\n        uint256 tokenBalanceOut,\n        uint256 tokenWeightOut,\n        uint256 poolSupply,\n        uint256 totalWeight,\n        uint256 poolAmountIn,\n        uint256 swapFee\n    ) internal pure returns (uint256 tokenAmountOut) {\n        uint256 normalizedWeight = bdiv(tokenWeightOut, totalWeight);\n        // charge exit fee on the pool token side\n        // pAiAfterExitFee = pAi*(1-exitFee)\n        uint256 poolAmountInAfterExitFee = bmul(\n            poolAmountIn,\n            bsub(BONE, EXIT_FEE)\n        );\n        uint256 newPoolSupply = bsub(poolSupply, poolAmountInAfterExitFee);\n        uint256 poolRatio = bdiv(newPoolSupply, poolSupply);\n\n        // newBalTo = poolRatio^(1/weightTo) * balTo;\n        uint256 tokenOutRatio = bpow(poolRatio, bdiv(BONE, normalizedWeight));\n        uint256 newTokenBalanceOut = bmul(tokenOutRatio, tokenBalanceOut);\n\n        uint256 tokenAmountOutBeforeSwapFee = bsub(\n            tokenBalanceOut,\n            newTokenBalanceOut\n        );\n\n        // charge swap fee on the output token side\n        //uint tAo = tAoBeforeSwapFee * (1 - (1-weightTo) * swapFee)\n        uint256 zaz = bmul(bsub(BONE, normalizedWeight), swapFee);\n        tokenAmountOut = bmul(tokenAmountOutBeforeSwapFee, bsub(BONE, zaz));\n        return tokenAmountOut;\n    }\n\n    /*\n    // calcPoolInGivenSingleOut                                                                  \n    // pAi = poolAmountIn               // /               tAo             \\\\     / wO \\     \\   \n    // bO = tokenBalanceOut            // | bO - -------------------------- |\\   | ---- |     \\  \n    // tAo = tokenAmountOut      pS - ||   \\     1 - ((1 - (tO / tW)) * sF)/  | ^ \\ tW /  * pS | \n    // ps = poolSupply                 \\\\ -----------------------------------/                /  \n    // wO = tokenWeightOut  pAi =       \\\\               bO                 /                /   \n    // tW = totalWeight           -------------------------------------------------------------  \n    // sF = swapFee                                        ( 1 - eF )                            \n    // eF = exitFee                                                                              \n    */\n    function calcPoolInGivenSingleOut(\n        uint256 tokenBalanceOut,\n        uint256 tokenWeightOut,\n        uint256 poolSupply,\n        uint256 totalWeight,\n        uint256 tokenAmountOut,\n        uint256 swapFee\n    ) internal pure returns (uint256 poolAmountIn) {\n        // charge swap fee on the output token side\n        uint256 normalizedWeight = bdiv(tokenWeightOut, totalWeight);\n        //uint tAoBeforeSwapFee = tAo / (1 - (1-weightTo) * swapFee) ;\n        uint256 zoo = bsub(BONE, normalizedWeight);\n        uint256 zar = bmul(zoo, swapFee);\n        uint256 tokenAmountOutBeforeSwapFee = bdiv(\n            tokenAmountOut,\n            bsub(BONE, zar)\n        );\n\n        uint256 newTokenBalanceOut = bsub(\n            tokenBalanceOut,\n            tokenAmountOutBeforeSwapFee\n        );\n        uint256 tokenOutRatio = bdiv(newTokenBalanceOut, tokenBalanceOut);\n\n        //uint newPoolSupply = (ratioTo ^ weightTo) * poolSupply;\n        uint256 poolRatio = bpow(tokenOutRatio, normalizedWeight);\n        uint256 newPoolSupply = bmul(poolRatio, poolSupply);\n        uint256 poolAmountInAfterExitFee = bsub(poolSupply, newPoolSupply);\n\n        // charge exit fee on the pool token side\n        // pAi = pAiAfterExitFee/(1-exitFee)\n        poolAmountIn = bdiv(poolAmountInAfterExitFee, bsub(BONE, EXIT_FEE));\n        return poolAmountIn;\n    }\n}\n\ninterface itoken {\n    function mint(address to, uint256 amount) external;\n\n    function burn(address to, uint256 amount) external;\n\n    function allowance(address owner, address spender)\n        external\n        view\n        returns (uint256);\n\n    function approve(address spender, uint256 amount) external returns (bool);\n\n    function transferFrom(\n        address from,\n        address to,\n        uint256 amount\n    ) external returns (bool);\n}\n\ncontract TokenBase is ERC20, ERC20Burnable, Ownable {\n    constructor() ERC20(\"INDEXLY\", \"IDX\") {}\n}\n\ncontract IndexSwap is TokenBase, BMath {\n    address internal constant pancakeSwapAddress =\n        0x10ED43C718714eb63d5aA57B78B54704E256024E; //Router for bsc mainnet\n\n    IPancakeRouter02 public pancakeSwapRouter;\n\n    // IERC20 public token;\n\n    using SafeMath for uint256;\n\n    MyModule gnosisSafe = MyModule(0xEf73E58650868f316461936A092818d5dF96102E);\n    address private vault = 0xD2aDa2CC6f97cfc1045B1cF70b3149139aC5f2a2;\n\n    address[10] tokenDefult = [\n        0x7130d2A12B9BCbFAe4f2634d864A1Ee1Ce3Ead9c, // BTC\n        0x2170Ed0880ac9A755fd29B2688956BD959F933F8, // ETH\n        0x2859e4544C4bB03966803b044A93563Bd2D0DD4D, // SHIBA\n        0x1D2F0da169ceB9fC7B3144628dB156f3F6c60dBE, // XRP\n        0x4338665CBB7B2485A8855A139b75D5e34AB0DB94, // LTC\n        0x1CE0c2827e2eF14D5C4f29a091d735A204794041, // AVAX\n        0xbA2aE424d960c26247Dd6c32edC70B295c744C43, // DOGECOIN\n        0xF8A0BF9cF54Bb92F17374d9e9A321E6a111a51bD, // LINK\n        0xBf5140A22578168FD562DCcF235E5D43A02ce9B1, // UNI\n        0x3EE2200Efb3400fAbB9AacF31297cBdD1d435D47 // Cardano\n    ];\n\n    uint96[10] denormsDefult = [1, 1, 1, 1, 1, 1, 1, 1, 1, 1];\n\n    struct rate {\n        uint256 numerator;\n        uint256 denominator;\n    }\n\n    /**\n     * @dev Token record data structure\n     * @param bound is token bound to pool\n     * @param ready has token been initialized\n     * @param lastDenormUpdate timestamp of last denorm change\n     * @param denorm denormalized weight\n     * @param desiredDenorm desired denormalized weight (used for incremental changes)\n     * @param index index of address in tokens array\n     * @param balance token balance\n     */\n    struct Record {\n        bool ready;\n        uint40 lastDenormUpdate;\n        uint96 denorm;\n        uint96 desiredDenorm;\n        uint8 index;\n        uint256 balance;\n    }\n    // Array of underlying tokens in the pool.\n    address[] internal _tokens;\n\n    // Internal records of the pool's underlying tokens\n    mapping(address => Record) internal _records;\n\n    // Total denormalized weight of the pool.\n    uint256 internal _totalWeight;\n\n    mapping(address => uint256) admins;\n\n    // True if PUBLIC can call SWAP & JOIN functions\n    bool internal _publicSwap;\n\n    rate public currentRate;\n\n    constructor() {\n        pancakeSwapRouter = IPancakeRouter02(pancakeSwapAddress);\n    }\n\n    /** @dev Emitted when public trades are enabled. */\n    event LOG_PUBLIC_SWAP_ENABLED();\n\n    /**\n     * @dev Sets up the initial assets for the pool.\n     *\n     * @param tokens Underlying tokens to initialize the pool with\n     * @param denorms Initial denormalized weights for the tokens\n     */\n\n    function initialize(address[] calldata tokens, uint96[] calldata denorms)\n        external\n        onlyOwner\n    {\n        require(_tokens.length == 0, \"INITIALIZED\");\n        uint256 len = tokens.length;\n        uint256 totalWeight = 0;\n        for (uint256 i = 0; i < len; i++) {\n            _records[tokens[i]] = Record({\n                ready: true,\n                lastDenormUpdate: uint40(block.timestamp),\n                denorm: denorms[i],\n                desiredDenorm: denorms[i],\n                index: uint8(i),\n                balance: 0\n            });\n            _tokens.push(tokens[i]);\n            totalWeight = badd(totalWeight, denorms[i]);\n        }\n        _totalWeight = totalWeight;\n        _publicSwap = true;\n        emit LOG_PUBLIC_SWAP_ENABLED();\n    }\n\n    function initializeDefult() external onlyOwner {\n        uint256 len = tokenDefult.length;\n        uint256 totalWeight = 0;\n        for (uint256 i = 0; i < len; i++) {\n            _records[tokenDefult[i]] = Record({\n                ready: true,\n                lastDenormUpdate: uint40(block.timestamp),\n                denorm: denormsDefult[i],\n                desiredDenorm: denormsDefult[i],\n                index: uint8(i),\n                balance: 0\n            });\n            _tokens.push(tokenDefult[i]);\n            totalWeight = badd(totalWeight, denormsDefult[i]);\n        }\n        _totalWeight = totalWeight;\n        _publicSwap = true;\n        emit LOG_PUBLIC_SWAP_ENABLED();\n    }\n\n    function initializeDefultTest() external onlyOwner {\n        uint256 len = tokenDefult.length;\n        uint256 totalWeight = 0;\n        for (uint256 i = 0; i < len; i++) {\n            _records[tokenDefult[i]] = Record({\n                ready: true,\n                lastDenormUpdate: uint40(block.timestamp),\n                denorm: denormsDefult[i],\n                desiredDenorm: denormsDefult[i],\n                index: uint8(i),\n                balance: 0\n            });\n            _tokens.push(tokenDefult[i]);\n            totalWeight = badd(totalWeight, denormsDefult[i]);\n        }\n        _totalWeight = totalWeight;\n        _publicSwap = true;\n        emit LOG_PUBLIC_SWAP_ENABLED();\n    }\n\n    function _pushUnderlying(\n        address erc20,\n        address to,\n        uint256 amount\n    ) internal {\n        (bool success, bytes memory data) = erc20.call(\n            abi.encodeWithSelector(IERC20.transfer.selector, to, amount)\n        );\n        require(\n            success && (data.length == 0 || abi.decode(data, (bool))),\n            \"ERC20_FALSE\"\n        );\n    }\n\n    function updateRate(uint256 _numerator, uint256 _denominator) public {\n        require(_numerator != 0);\n        require(_denominator != 0);\n        currentRate.numerator = _numerator;\n        currentRate.denominator = _denominator;\n    }\n\n    function investInFund(uint256 cryptoAmount) public payable {\n        uint256 deadline = block.timestamp + 15; // using 'now' for convenience, for mainnet pass deadline from frontend!\n        uint256 amountEth = msg.value;\n        for (uint256 i = 0; i < _tokens.length; i++) {\n            address t = _tokens[i];\n            Record memory record = _records[t];\n            uint256 swapAmount = amountEth.mul(record.denorm).div(_totalWeight);\n            pancakeSwapRouter.swapExactETHForTokens{value: swapAmount}(\n                0,\n                getPathForETH(t),\n                vault,\n                deadline\n            );\n        }\n\n        uint256 tokenAmount = cryptoAmount.mul(currentRate.numerator).div(\n            currentRate.denominator\n        );\n\n        _mint(msg.sender, tokenAmount);\n\n        // refund leftover ETH to user\n        (bool success, ) = msg.sender.call{value: address(this).balance}(\"\");\n        require(success, \"refund failed\");\n    }\n\n    function withdrawFromFundNew(uint256 tokenAmount) public payable {\n        require(tokenAmount <= balanceOf(msg.sender), \"not balance\");\n\n        uint256 deadline = block.timestamp + 15;\n\n        uint256 totalSupplyIndex = totalSupply();\n\n        _burn(msg.sender, tokenAmount);\n\n        for (uint256 i = 0; i < _tokens.length; i++) {\n            address t = _tokens[i];\n\n            IERC20 token = IERC20(t);\n            uint256 tokenBalance = token.balanceOf(vault);\n            uint256 amount = tokenBalance.mul(tokenAmount).div(\n                totalSupplyIndex\n            );\n\n            gnosisSafe.executeTransactionOther(\n                address(this),\n                amount,\n                address(t)\n            );\n            TransferHelper.safeApprove(\n                address(t),\n                address(pancakeSwapRouter),\n                amount\n            );\n            pancakeSwapRouter.swapExactTokensForETH(\n                amount,\n                0,\n                getPathForToken(t),\n                msg.sender,\n                deadline\n            );\n        }\n    }\n\n    function getPathForETH(address crypto)\n        public\n        view\n        returns (address[] memory)\n    {\n        address[] memory path = new address[](2);\n        path[0] = pancakeSwapRouter.WETH();\n        path[1] = crypto;\n\n        return path;\n    }\n\n    function getPathForToken(address token)\n        public\n        view\n        returns (address[] memory)\n    {\n        address[] memory path = new address[](2);\n        path[0] = token;\n        path[1] = pancakeSwapRouter.WETH();\n\n        return path;\n    }\n\n    function getETH() public view returns (address) {\n        return pancakeSwapRouter.WETH();\n    }\n\n    // important to receive ETH\n    receive() external payable {}\n}\n",
  "sourcePath": "/Users/navinalang/Navina-workgroup/05_create_and_burn/contracts/IndexSwap.sol",
  "compiler": {
    "name": "solc",
    "version": "0.8.10+commit.fc410830.Emscripten.clang"
  },
  "schemaVersion": "3.4.6",
  "updatedAt": "2022-05-04T17:15:30.288Z",
  "devdoc": {
    "events": {
      "LOG_PUBLIC_SWAP_ENABLED()": {
        "details": "Emitted when public trades are enabled. "
      }
    },
    "kind": "dev",
    "methods": {
      "allowance(address,address)": {
        "details": "See {IERC20-allowance}."
      },
      "approve(address,uint256)": {
        "details": "See {IERC20-approve}. NOTE: If `amount` is the maximum `uint256`, the allowance is not updated on `transferFrom`. This is semantically equivalent to an infinite approval. Requirements: - `spender` cannot be the zero address."
      },
      "balanceOf(address)": {
        "details": "See {IERC20-balanceOf}."
      },
      "burn(uint256)": {
        "details": "Destroys `amount` tokens from the caller. See {ERC20-_burn}."
      },
      "burnFrom(address,uint256)": {
        "details": "Destroys `amount` tokens from `account`, deducting from the caller's allowance. See {ERC20-_burn} and {ERC20-allowance}. Requirements: - the caller must have allowance for ``accounts``'s tokens of at least `amount`."
      },
      "decimals()": {
        "details": "Returns the number of decimals used to get its user representation. For example, if `decimals` equals `2`, a balance of `505` tokens should be displayed to a user as `5.05` (`505 / 10 ** 2`). Tokens usually opt for a value of 18, imitating the relationship between Ether and Wei. This is the value {ERC20} uses, unless this function is overridden; NOTE: This information is only used for _display_ purposes: it in no way affects any of the arithmetic of the contract, including {IERC20-balanceOf} and {IERC20-transfer}."
      },
      "decreaseAllowance(address,uint256)": {
        "details": "Atomically decreases the allowance granted to `spender` by the caller. This is an alternative to {approve} that can be used as a mitigation for problems described in {IERC20-approve}. Emits an {Approval} event indicating the updated allowance. Requirements: - `spender` cannot be the zero address. - `spender` must have allowance for the caller of at least `subtractedValue`."
      },
      "increaseAllowance(address,uint256)": {
        "details": "Atomically increases the allowance granted to `spender` by the caller. This is an alternative to {approve} that can be used as a mitigation for problems described in {IERC20-approve}. Emits an {Approval} event indicating the updated allowance. Requirements: - `spender` cannot be the zero address."
      },
      "initialize(address[],uint96[])": {
        "details": "Sets up the initial assets for the pool.",
        "params": {
          "denorms": "Initial denormalized weights for the tokens",
          "tokens": "Underlying tokens to initialize the pool with"
        }
      },
      "name()": {
        "details": "Returns the name of the token."
      },
      "owner()": {
        "details": "Returns the address of the current owner."
      },
      "renounceOwnership()": {
        "details": "Leaves the contract without owner. It will not be possible to call `onlyOwner` functions anymore. Can only be called by the current owner. NOTE: Renouncing ownership will leave the contract without an owner, thereby removing any functionality that is only available to the owner."
      },
      "symbol()": {
        "details": "Returns the symbol of the token, usually a shorter version of the name."
      },
      "totalSupply()": {
        "details": "See {IERC20-totalSupply}."
      },
      "transfer(address,uint256)": {
        "details": "See {IERC20-transfer}. Requirements: - `to` cannot be the zero address. - the caller must have a balance of at least `amount`."
      },
      "transferFrom(address,address,uint256)": {
        "details": "See {IERC20-transferFrom}. Emits an {Approval} event indicating the updated allowance. This is not required by the EIP. See the note at the beginning of {ERC20}. NOTE: Does not update the allowance if the current allowance is the maximum `uint256`. Requirements: - `from` and `to` cannot be the zero address. - `from` must have a balance of at least `amount`. - the caller must have allowance for ``from``'s tokens of at least `amount`."
      },
      "transferOwnership(address)": {
        "details": "Transfers ownership of the contract to a new account (`newOwner`). Can only be called by the current owner."
      }
    },
    "version": 1
  },
  "userdoc": {
    "kind": "user",
    "methods": {},
    "version": 1
  }
}