{
  "contractName": "IndexSwap",
  "abi": [
    {
      "inputs": [],
      "stateMutability": "nonpayable",
      "type": "constructor"
    },
    {
      "anonymous": false,
      "inputs": [
        {
          "indexed": true,
          "internalType": "address",
          "name": "owner",
          "type": "address"
        },
        {
          "indexed": true,
          "internalType": "address",
          "name": "spender",
          "type": "address"
        },
        {
          "indexed": false,
          "internalType": "uint256",
          "name": "value",
          "type": "uint256"
        }
      ],
      "name": "Approval",
      "type": "event"
    },
    {
      "anonymous": false,
      "inputs": [],
      "name": "LOG_PUBLIC_SWAP_ENABLED",
      "type": "event"
    },
    {
      "anonymous": false,
      "inputs": [
        {
          "indexed": true,
          "internalType": "address",
          "name": "previousOwner",
          "type": "address"
        },
        {
          "indexed": true,
          "internalType": "address",
          "name": "newOwner",
          "type": "address"
        }
      ],
      "name": "OwnershipTransferred",
      "type": "event"
    },
    {
      "anonymous": false,
      "inputs": [
        {
          "indexed": true,
          "internalType": "address",
          "name": "from",
          "type": "address"
        },
        {
          "indexed": true,
          "internalType": "address",
          "name": "to",
          "type": "address"
        },
        {
          "indexed": false,
          "internalType": "uint256",
          "name": "value",
          "type": "uint256"
        }
      ],
      "name": "Transfer",
      "type": "event"
    },
    {
      "inputs": [],
      "name": "VERSION_NUMBER",
      "outputs": [
        {
          "internalType": "uint256",
          "name": "",
          "type": "uint256"
        }
      ],
      "stateMutability": "view",
      "type": "function"
    },
    {
      "inputs": [
        {
          "internalType": "address",
          "name": "owner",
          "type": "address"
        },
        {
          "internalType": "address",
          "name": "spender",
          "type": "address"
        }
      ],
      "name": "allowance",
      "outputs": [
        {
          "internalType": "uint256",
          "name": "",
          "type": "uint256"
        }
      ],
      "stateMutability": "view",
      "type": "function"
    },
    {
      "inputs": [],
      "name": "amount1",
      "outputs": [
        {
          "internalType": "uint256",
          "name": "",
          "type": "uint256"
        }
      ],
      "stateMutability": "view",
      "type": "function"
    },
    {
      "inputs": [],
      "name": "amount2",
      "outputs": [
        {
          "internalType": "uint256",
          "name": "",
          "type": "uint256"
        }
      ],
      "stateMutability": "view",
      "type": "function"
    },
    {
      "inputs": [
        {
          "internalType": "address",
          "name": "spender",
          "type": "address"
        },
        {
          "internalType": "uint256",
          "name": "amount",
          "type": "uint256"
        }
      ],
      "name": "approve",
      "outputs": [
        {
          "internalType": "bool",
          "name": "",
          "type": "bool"
        }
      ],
      "stateMutability": "nonpayable",
      "type": "function"
    },
    {
      "inputs": [
        {
          "internalType": "address",
          "name": "account",
          "type": "address"
        }
      ],
      "name": "balanceOf",
      "outputs": [
        {
          "internalType": "uint256",
          "name": "",
          "type": "uint256"
        }
      ],
      "stateMutability": "view",
      "type": "function"
    },
    {
      "inputs": [],
      "name": "btcSupply",
      "outputs": [
        {
          "internalType": "uint256",
          "name": "",
          "type": "uint256"
        }
      ],
      "stateMutability": "view",
      "type": "function"
    },
    {
      "inputs": [],
      "name": "btcSupplyBNB",
      "outputs": [
        {
          "internalType": "uint256",
          "name": "",
          "type": "uint256"
        }
      ],
      "stateMutability": "view",
      "type": "function"
    },
    {
      "inputs": [
        {
          "internalType": "uint256",
          "name": "amount",
          "type": "uint256"
        }
      ],
      "name": "burn",
      "outputs": [],
      "stateMutability": "nonpayable",
      "type": "function"
    },
    {
      "inputs": [
        {
          "internalType": "address",
          "name": "account",
          "type": "address"
        },
        {
          "internalType": "uint256",
          "name": "amount",
          "type": "uint256"
        }
      ],
      "name": "burnFrom",
      "outputs": [],
      "stateMutability": "nonpayable",
      "type": "function"
    },
    {
      "inputs": [],
      "name": "currentRate",
      "outputs": [
        {
          "internalType": "uint256",
          "name": "numerator",
          "type": "uint256"
        },
        {
          "internalType": "uint256",
          "name": "denominator",
          "type": "uint256"
        }
      ],
      "stateMutability": "view",
      "type": "function"
    },
    {
      "inputs": [],
      "name": "decimals",
      "outputs": [
        {
          "internalType": "uint8",
          "name": "",
          "type": "uint8"
        }
      ],
      "stateMutability": "view",
      "type": "function"
    },
    {
      "inputs": [
        {
          "internalType": "address",
          "name": "spender",
          "type": "address"
        },
        {
          "internalType": "uint256",
          "name": "subtractedValue",
          "type": "uint256"
        }
      ],
      "name": "decreaseAllowance",
      "outputs": [
        {
          "internalType": "bool",
          "name": "",
          "type": "bool"
        }
      ],
      "stateMutability": "nonpayable",
      "type": "function"
    },
    {
      "inputs": [],
      "name": "ethSupply",
      "outputs": [
        {
          "internalType": "uint256",
          "name": "",
          "type": "uint256"
        }
      ],
      "stateMutability": "view",
      "type": "function"
    },
    {
      "inputs": [],
      "name": "ethSupplyBNB",
      "outputs": [
        {
          "internalType": "uint256",
          "name": "",
          "type": "uint256"
        }
      ],
      "stateMutability": "view",
      "type": "function"
    },
    {
      "inputs": [
        {
          "internalType": "address",
          "name": "spender",
          "type": "address"
        },
        {
          "internalType": "uint256",
          "name": "addedValue",
          "type": "uint256"
        }
      ],
      "name": "increaseAllowance",
      "outputs": [
        {
          "internalType": "bool",
          "name": "",
          "type": "bool"
        }
      ],
      "stateMutability": "nonpayable",
      "type": "function"
    },
    {
      "inputs": [],
      "name": "name",
      "outputs": [
        {
          "internalType": "string",
          "name": "",
          "type": "string"
        }
      ],
      "stateMutability": "view",
      "type": "function"
    },
    {
      "inputs": [],
      "name": "owner",
      "outputs": [
        {
          "internalType": "address",
          "name": "",
          "type": "address"
        }
      ],
      "stateMutability": "view",
      "type": "function"
    },
    {
      "inputs": [],
      "name": "pancakeSwapRouter",
      "outputs": [
        {
          "internalType": "contract IPancakeRouter02",
          "name": "",
          "type": "address"
        }
      ],
      "stateMutability": "view",
      "type": "function"
    },
    {
      "inputs": [],
      "name": "renounceOwnership",
      "outputs": [],
      "stateMutability": "nonpayable",
      "type": "function"
    },
    {
      "inputs": [],
      "name": "symbol",
      "outputs": [
        {
          "internalType": "string",
          "name": "",
          "type": "string"
        }
      ],
      "stateMutability": "view",
      "type": "function"
    },
    {
      "inputs": [],
      "name": "totalSupply",
      "outputs": [
        {
          "internalType": "uint256",
          "name": "",
          "type": "uint256"
        }
      ],
      "stateMutability": "view",
      "type": "function"
    },
    {
      "inputs": [],
      "name": "totalVaultValue",
      "outputs": [
        {
          "internalType": "uint256",
          "name": "",
          "type": "uint256"
        }
      ],
      "stateMutability": "view",
      "type": "function"
    },
    {
      "inputs": [
        {
          "internalType": "address",
          "name": "to",
          "type": "address"
        },
        {
          "internalType": "uint256",
          "name": "amount",
          "type": "uint256"
        }
      ],
      "name": "transfer",
      "outputs": [
        {
          "internalType": "bool",
          "name": "",
          "type": "bool"
        }
      ],
      "stateMutability": "nonpayable",
      "type": "function"
    },
    {
      "inputs": [
        {
          "internalType": "address",
          "name": "from",
          "type": "address"
        },
        {
          "internalType": "address",
          "name": "to",
          "type": "address"
        },
        {
          "internalType": "uint256",
          "name": "amount",
          "type": "uint256"
        }
      ],
      "name": "transferFrom",
      "outputs": [
        {
          "internalType": "bool",
          "name": "",
          "type": "bool"
        }
      ],
      "stateMutability": "nonpayable",
      "type": "function"
    },
    {
      "inputs": [
        {
          "internalType": "address",
          "name": "newOwner",
          "type": "address"
        }
      ],
      "name": "transferOwnership",
      "outputs": [],
      "stateMutability": "nonpayable",
      "type": "function"
    },
    {
      "stateMutability": "payable",
      "type": "receive"
    },
    {
      "inputs": [
        {
          "internalType": "address[]",
          "name": "tokens",
          "type": "address[]"
        },
        {
          "internalType": "uint96[]",
          "name": "denorms",
          "type": "uint96[]"
        }
      ],
      "name": "initialize",
      "outputs": [],
      "stateMutability": "nonpayable",
      "type": "function"
    },
    {
      "inputs": [],
      "name": "initializeDefult",
      "outputs": [],
      "stateMutability": "nonpayable",
      "type": "function"
    },
    {
      "inputs": [],
      "name": "initializeDefultTest",
      "outputs": [],
      "stateMutability": "nonpayable",
      "type": "function"
    },
    {
      "inputs": [
        {
          "internalType": "uint256",
          "name": "_numerator",
          "type": "uint256"
        },
        {
          "internalType": "uint256",
          "name": "_denominator",
          "type": "uint256"
        }
      ],
      "name": "updateRate",
      "outputs": [],
      "stateMutability": "nonpayable",
      "type": "function"
    },
    {
      "inputs": [
        {
          "internalType": "uint256",
          "name": "cryptoAmount",
          "type": "uint256"
        }
      ],
      "name": "investInFund",
      "outputs": [],
      "stateMutability": "payable",
      "type": "function"
    },
    {
      "inputs": [
        {
          "internalType": "uint256",
          "name": "tokenAmount",
          "type": "uint256"
        }
      ],
      "name": "withdrawFromFundNew",
      "outputs": [],
      "stateMutability": "payable",
      "type": "function"
    },
    {
      "inputs": [
        {
          "internalType": "address",
          "name": "crypto",
          "type": "address"
        }
      ],
      "name": "getPathForETH",
      "outputs": [
        {
          "internalType": "address[]",
          "name": "",
          "type": "address[]"
        }
      ],
      "stateMutability": "view",
      "type": "function"
    },
    {
      "inputs": [
        {
          "internalType": "address",
          "name": "token",
          "type": "address"
        }
      ],
      "name": "getPathForToken",
      "outputs": [
        {
          "internalType": "address[]",
          "name": "",
          "type": "address[]"
        }
      ],
      "stateMutability": "view",
      "type": "function"
    },
    {
      "inputs": [],
      "name": "getETH",
      "outputs": [
        {
          "internalType": "address",
          "name": "",
          "type": "address"
        }
      ],
      "stateMutability": "view",
      "type": "function"
    }
  ],
  "bytecode": "0x60806040527367c9e63b7288b7bf88ce114c474ce2fb50ebc8f0600760006101000a81548173ffffffffffffffffffffffffffffffffffffffff021916908373ffffffffffffffffffffffffffffffffffffffff1602179055506040518060400160405280737130d2a12b9bcbfae4f2634d864a1ee1ce3ead9c73ffffffffffffffffffffffffffffffffffffffff1673ffffffffffffffffffffffffffffffffffffffff168152602001732170ed0880ac9a755fd29b2688956bd959f933f873ffffffffffffffffffffffffffffffffffffffff1673ffffffffffffffffffffffffffffffffffffffff1681525060089060026200010092919062000328565b506040518060400160405280600160ff168152602001600160ff16815250600a90600262000130929190620003aa565b503480156200013e57600080fd5b506040518060400160405280600781526020017f494e4445584c59000000000000000000000000000000000000000000000000008152506040518060400160405280600381526020017f49445800000000000000000000000000000000000000000000000000000000008152508160039080519060200190620001c392919062000461565b508060049080519060200190620001dc92919062000461565b505050620001ff620001f36200025a60201b60201c565b6200026260201b60201c565b7310ed43c718714eb63d5aa57b78b54704e256024e600660006101000a81548173ffffffffffffffffffffffffffffffffffffffff021916908373ffffffffffffffffffffffffffffffffffffffff16021790555062000576565b600033905090565b6000600560009054906101000a900473ffffffffffffffffffffffffffffffffffffffff16905081600560006101000a81548173ffffffffffffffffffffffffffffffffffffffff021916908373ffffffffffffffffffffffffffffffffffffffff1602179055508173ffffffffffffffffffffffffffffffffffffffff168173ffffffffffffffffffffffffffffffffffffffff167f8be0079c531659141344cd1fd0a4f28419497f9722a3daafe3b4186f6b6457e060405160405180910390a35050565b826002810192821562000397579160200282015b82811115620003965782518260006101000a81548173ffffffffffffffffffffffffffffffffffffffff021916908373ffffffffffffffffffffffffffffffffffffffff160217905550916020019190600101906200033c565b5b509050620003a69190620004f2565b5090565b8260026001016002900481019282156200044e5791602002820160005b838211156200041257835183826101000a8154816bffffffffffffffffffffffff021916908360ff1602179055509260200192600c01602081600b01049283019260010302620003c7565b80156200044c5782816101000a8154906bffffffffffffffffffffffff0219169055600c01602081600b0104928301926001030262000412565b505b5090506200045d9190620004f2565b5090565b8280546200046f9062000540565b90600052602060002090601f016020900481019282620004935760008555620004df565b82601f10620004ae57805160ff1916838001178555620004df565b82800160010185558215620004df579182015b82811115620004de578251825591602001919060010190620004c1565b5b509050620004ee9190620004f2565b5090565b5b808211156200050d576000816000905550600101620004f3565b5090565b7f4e487b7100000000000000000000000000000000000000000000000000000000600052602260045260246000fd5b600060028204905060018216806200055957607f821691505b6020821081141562000570576200056f62000511565b5b50919050565b614c5080620005866000396000f3fe6080604052600436106102085760003560e01c806370a0823111610118578063a5e3da08116100a0578063ca0e7ed51161006f578063ca0e7ed51461073a578063dd62ed3e14610777578063f2fde38b146107b4578063f400fde4146107dd578063f9f8bdb7146108085761020f565b8063a5e3da081461066a578063a9059cbb14610695578063afbc74b9146106d2578063b0849c1c146106fd5761020f565b806381a8e605116100e757806381a8e605146105925780638da5cb5b146105ae578063955a333b146105d957806395d89b4114610602578063a457c2d71461062d5761020f565b806370a08231146104ea578063715018a61461052757806379cc67901461053e5780638025e303146105675761020f565b8063313ce5671161019b57806342966c681161016a57806342966c68146104245780634d6a3cfb1461044d578063522d86e614610478578063534fec84146104a35780635bab42a1146104ce5761020f565b8063313ce5671461037c578063324bc2f1146103a757806339509351146103be578063405abb41146103fb5761020f565b806314f6c3be116101d757806314f6c3be146102be57806318160ddd146102e957806323b872dd1461031457806324558995146103515761020f565b8063057bfcc71461021457806306fdde031461023f578063095ea7b31461026a5780630c2cd2cd146102a75761020f565b3661020f57005b600080fd5b34801561022057600080fd5b50610229610834565b604051610236919061357e565b60405180910390f35b34801561024b57600080fd5b5061025461083a565b6040516102619190613632565b60405180910390f35b34801561027657600080fd5b50610291600480360381019061028c91906136f2565b6108cc565b60405161029e919061374d565b60405180910390f35b3480156102b357600080fd5b506102bc6108ef565b005b3480156102ca57600080fd5b506102d3610cea565b6040516102e09190613777565b60405180910390f35b3480156102f557600080fd5b506102fe610d82565b60405161030b919061357e565b60405180910390f35b34801561032057600080fd5b5061033b60048036038101906103369190613792565b610d8c565b604051610348919061374d565b60405180910390f35b34801561035d57600080fd5b50610366610dbb565b6040516103739190613844565b60405180910390f35b34801561038857600080fd5b50610391610de1565b60405161039e919061387b565b60405180910390f35b3480156103b357600080fd5b506103bc610dea565b005b3480156103ca57600080fd5b506103e560048036038101906103e091906136f2565b6111e5565b6040516103f2919061374d565b60405180910390f35b34801561040757600080fd5b50610422600480360381019061041d9190613896565b61128f565b005b34801561043057600080fd5b5061044b600480360381019061044691906138d6565b6112c3565b005b34801561045957600080fd5b506104626112d7565b60405161046f919061357e565b60405180910390f35b34801561048457600080fd5b5061048d6112dd565b60405161049a919061357e565b60405180910390f35b3480156104af57600080fd5b506104b86112e3565b6040516104c5919061357e565b60405180910390f35b6104e860048036038101906104e391906138d6565b6112e9565b005b3480156104f657600080fd5b50610511600480360381019061050c9190613903565b611b43565b60405161051e919061357e565b60405180910390f35b34801561053357600080fd5b5061053c611b8b565b005b34801561054a57600080fd5b50610565600480360381019061056091906136f2565b611c13565b005b34801561057357600080fd5b5061057c611c33565b604051610589919061357e565b60405180910390f35b6105ac60048036038101906105a791906138d6565b611c38565b005b3480156105ba57600080fd5b506105c3611ef8565b6040516105d09190613777565b60405180910390f35b3480156105e557600080fd5b5061060060048036038101906105fb91906139eb565b611f22565b005b34801561060e57600080fd5b5061061761231f565b6040516106249190613632565b60405180910390f35b34801561063957600080fd5b50610654600480360381019061064f91906136f2565b6123b1565b604051610661919061374d565b60405180910390f35b34801561067657600080fd5b5061067f61249b565b60405161068c919061357e565b60405180910390f35b3480156106a157600080fd5b506106bc60048036038101906106b791906136f2565b6124a1565b6040516106c9919061374d565b60405180910390f35b3480156106de57600080fd5b506106e76124c4565b6040516106f4919061357e565b60405180910390f35b34801561070957600080fd5b50610724600480360381019061071f9190613903565b6124ca565b6040516107319190613b2a565b60405180910390f35b34801561074657600080fd5b50610761600480360381019061075c9190613903565b612651565b60405161076e9190613b2a565b60405180910390f35b34801561078357600080fd5b5061079e60048036038101906107999190613b4c565b6127d8565b6040516107ab919061357e565b60405180910390f35b3480156107c057600080fd5b506107db60048036038101906107d69190613903565b61285f565b005b3480156107e957600080fd5b506107f2612957565b6040516107ff919061357e565b60405180910390f35b34801561081457600080fd5b5061081d61295d565b60405161082b929190613b8c565b60405180910390f35b60135481565b60606003805461084990613be4565b80601f016020809104026020016040519081016040528092919081815260200182805461087590613be4565b80156108c25780601f10610897576101008083540402835291602001916108c2565b820191906000526020600020905b8154815290600101906020018083116108a557829003601f168201915b5050505050905090565b6000806108d761296f565b90506108e4818585612977565b600191505092915050565b6108f761296f565b73ffffffffffffffffffffffffffffffffffffffff16610915611ef8565b73ffffffffffffffffffffffffffffffffffffffff161461096b576040517f08c379a000000000000000000000000000000000000000000000000000000000815260040161096290613c62565b60405180910390fd5b6000600290506000805b82811015610c97576040518060c001604052806001151581526020014264ffffffffff168152602001600a83600281106109b2576109b1613c82565b5b60029182820401919006600c029054906101000a90046bffffffffffffffffffffffff166bffffffffffffffffffffffff168152602001600a83600281106109fd576109fc613c82565b5b60029182820401919006600c029054906101000a90046bffffffffffffffffffffffff166bffffffffffffffffffffffff1681526020018260ff1681526020016000815250600c600060088460028110610a5a57610a59613c82565b5b0160009054906101000a900473ffffffffffffffffffffffffffffffffffffffff1673ffffffffffffffffffffffffffffffffffffffff1673ffffffffffffffffffffffffffffffffffffffff16815260200190815260200160002060008201518160000160006101000a81548160ff02191690831515021790555060208201518160000160016101000a81548164ffffffffff021916908364ffffffffff16021790555060408201518160000160066101000a8154816bffffffffffffffffffffffff02191690836bffffffffffffffffffffffff16021790555060608201518160000160126101000a8154816bffffffffffffffffffffffff02191690836bffffffffffffffffffffffff160217905550608082015181600001601e6101000a81548160ff021916908360ff16021790555060a08201518160010155905050600b60088260028110610bb157610bb0613c82565b5b0160009054906101000a900473ffffffffffffffffffffffffffffffffffffffff169080600181540180825580915050600190039060005260206000200160009091909190916101000a81548173ffffffffffffffffffffffffffffffffffffffff021916908373ffffffffffffffffffffffffffffffffffffffff160217905550610c8282600a8360028110610c4b57610c4a613c82565b5b60029182820401919006600c029054906101000a90046bffffffffffffffffffffffff166bffffffffffffffffffffffff16612b42565b91508080610c8f90613ce0565b915050610975565b5080600d819055506001600f60006101000a81548160ff0219169083151502179055507f183bed17d33ee5be9a47bb997aee6a152d84a34309cdb66f76301de0a40a138960405160405180910390a15050565b6000600660009054906101000a900473ffffffffffffffffffffffffffffffffffffffff1673ffffffffffffffffffffffffffffffffffffffff1663ad5c46486040518163ffffffff1660e01b8152600401602060405180830381865afa158015610d59573d6000803e3d6000fd5b505050506040513d601f19601f82011682018060405250810190610d7d9190613d3e565b905090565b6000600254905090565b600080610d9761296f565b9050610da4858285612ba0565b610daf858585612c2c565b60019150509392505050565b600660009054906101000a900473ffffffffffffffffffffffffffffffffffffffff1681565b60006012905090565b610df261296f565b73ffffffffffffffffffffffffffffffffffffffff16610e10611ef8565b73ffffffffffffffffffffffffffffffffffffffff1614610e66576040517f08c379a0000000000000000000000000000000000000000000000000000000008152600401610e5d90613c62565b60405180910390fd5b6000600290506000805b82811015611192576040518060c001604052806001151581526020014264ffffffffff168152602001600a8360028110610ead57610eac613c82565b5b60029182820401919006600c029054906101000a90046bffffffffffffffffffffffff166bffffffffffffffffffffffff168152602001600a8360028110610ef857610ef7613c82565b5b60029182820401919006600c029054906101000a90046bffffffffffffffffffffffff166bffffffffffffffffffffffff1681526020018260ff1681526020016000815250600c600060088460028110610f5557610f54613c82565b5b0160009054906101000a900473ffffffffffffffffffffffffffffffffffffffff1673ffffffffffffffffffffffffffffffffffffffff1673ffffffffffffffffffffffffffffffffffffffff16815260200190815260200160002060008201518160000160006101000a81548160ff02191690831515021790555060208201518160000160016101000a81548164ffffffffff021916908364ffffffffff16021790555060408201518160000160066101000a8154816bffffffffffffffffffffffff02191690836bffffffffffffffffffffffff16021790555060608201518160000160126101000a8154816bffffffffffffffffffffffff02191690836bffffffffffffffffffffffff160217905550608082015181600001601e6101000a81548160ff021916908360ff16021790555060a08201518160010155905050600b600882600281106110ac576110ab613c82565b5b0160009054906101000a900473ffffffffffffffffffffffffffffffffffffffff169080600181540180825580915050600190039060005260206000200160009091909190916101000a81548173ffffffffffffffffffffffffffffffffffffffff021916908373ffffffffffffffffffffffffffffffffffffffff16021790555061117d82600a836002811061114657611145613c82565b5b60029182820401919006600c029054906101000a90046bffffffffffffffffffffffff166bffffffffffffffffffffffff16612b42565b9150808061118a90613ce0565b915050610e70565b5080600d819055506001600f60006101000a81548160ff0219169083151502179055507f183bed17d33ee5be9a47bb997aee6a152d84a34309cdb66f76301de0a40a138960405160405180910390a15050565b6000806111f061296f565b9050611284818585600160008673ffffffffffffffffffffffffffffffffffffffff1673ffffffffffffffffffffffffffffffffffffffff16815260200190815260200160002060008973ffffffffffffffffffffffffffffffffffffffff1673ffffffffffffffffffffffffffffffffffffffff1681526020019081526020016000205461127f9190613d6b565b612977565b600191505092915050565b600082141561129d57600080fd5b60008114156112ab57600080fd5b81601060000181905550806010600101819055505050565b6112d46112ce61296f565b82612ead565b50565b60145481565b60155481565b60175481565b60006112f3610d82565b111561175d576000600b6000815481106113105761130f613c82565b5b9060005260206000200160009054906101000a900473ffffffffffffffffffffffffffffffffffffffff1690508073ffffffffffffffffffffffffffffffffffffffff166370a08231600760009054906101000a900473ffffffffffffffffffffffffffffffffffffffff166040518263ffffffff1660e01b81526004016113989190613777565b602060405180830381865afa1580156113b5573d6000803e3d6000fd5b505050506040513d601f19601f820116820180604052508101906113d99190613dd6565b601481905550600660009054906101000a900473ffffffffffffffffffffffffffffffffffffffff1673ffffffffffffffffffffffffffffffffffffffff1663d06ca61f601454611468600b60008154811061143857611437613c82565b5b9060005260206000200160009054906101000a900473ffffffffffffffffffffffffffffffffffffffff16612651565b6040518363ffffffff1660e01b8152600401611485929190613e03565b600060405180830381865afa1580156114a2573d6000803e3d6000fd5b505050506040513d6000823e3d601f19601f820116820180604052508101906114cb9190613f71565b6001815181106114de576114dd613c82565b5b60200260200101516015819055506000600b60018154811061150357611502613c82565b5b9060005260206000200160009054906101000a900473ffffffffffffffffffffffffffffffffffffffff1690508073ffffffffffffffffffffffffffffffffffffffff166370a08231600760009054906101000a900473ffffffffffffffffffffffffffffffffffffffff166040518263ffffffff1660e01b815260040161158b9190613777565b602060405180830381865afa1580156115a8573d6000803e3d6000fd5b505050506040513d601f19601f820116820180604052508101906115cc9190613dd6565b601681905550600660009054906101000a900473ffffffffffffffffffffffffffffffffffffffff1673ffffffffffffffffffffffffffffffffffffffff1663d06ca61f60165461165b600b60018154811061162b5761162a613c82565b5b9060005260206000200160009054906101000a900473ffffffffffffffffffffffffffffffffffffffff16612651565b6040518363ffffffff1660e01b8152600401611678929190613e03565b600060405180830381865afa158015611695573d6000803e3d6000fd5b505050506040513d6000823e3d601f19601f820116820180604052508101906116be9190613f71565b6001815181106116d1576116d0613c82565b5b60200260200101516017819055506116f660175460175461308490919063ffffffff16565b6018819055506117256018546117178560155461309a90919063ffffffff16565b6130b090919063ffffffff16565b6012819055506117546018546117468560175461309a90919063ffffffff16565b6130b090919063ffffffff16565b60138190555050505b6000600f4261176c9190613d6b565b9050600034905060005b600b80549050811015611a52576000600b828154811061179957611798613c82565b5b9060005260206000200160009054906101000a900473ffffffffffffffffffffffffffffffffffffffff1690506000600c60008373ffffffffffffffffffffffffffffffffffffffff1673ffffffffffffffffffffffffffffffffffffffff1681526020019081526020016000206040518060c00160405290816000820160009054906101000a900460ff161515151581526020016000820160019054906101000a900464ffffffffff1664ffffffffff1664ffffffffff1681526020016000820160069054906101000a90046bffffffffffffffffffffffff166bffffffffffffffffffffffff166bffffffffffffffffffffffff1681526020016000820160129054906101000a90046bffffffffffffffffffffffff166bffffffffffffffffffffffff166bffffffffffffffffffffffff16815260200160008201601e9054906101000a900460ff1660ff1660ff1681526020016001820154815250509050600080611906610d82565b141561194c57611945600d5461193784604001516bffffffffffffffffffffffff168861309a90919063ffffffff16565b6130b090919063ffffffff16565b9050611966565b600084141561195f576012549050611965565b60135490505b5b600660009054906101000a900473ffffffffffffffffffffffffffffffffffffffff1673ffffffffffffffffffffffffffffffffffffffff16637ff36ab58260006119b0876124ca565b600760009054906101000a900473ffffffffffffffffffffffffffffffffffffffff168b6040518663ffffffff1660e01b81526004016119f39493929190613ff5565b60006040518083038185885af1158015611a11573d6000803e3d6000fd5b50505050506040513d6000823e3d601f19601f82011682018060405250810190611a3b9190613f71565b505050508080611a4a90613ce0565b915050611776565b506000611a84601060010154611a766010600001548761309a90919063ffffffff16565b6130b090919063ffffffff16565b9050611a9033826130c6565b60003373ffffffffffffffffffffffffffffffffffffffff1647604051611ab690614072565b60006040518083038185875af1925050503d8060008114611af3576040519150601f19603f3d011682016040523d82523d6000602084013e611af8565b606091505b5050905080611b3c576040517f08c379a0000000000000000000000000000000000000000000000000000000008152600401611b33906140d3565b60405180910390fd5b5050505050565b60008060008373ffffffffffffffffffffffffffffffffffffffff1673ffffffffffffffffffffffffffffffffffffffff168152602001908152602001600020549050919050565b611b9361296f565b73ffffffffffffffffffffffffffffffffffffffff16611bb1611ef8565b73ffffffffffffffffffffffffffffffffffffffff1614611c07576040517f08c379a0000000000000000000000000000000000000000000000000000000008152600401611bfe90613c62565b60405180910390fd5b611c116000613226565b565b611c2582611c1f61296f565b83612ba0565b611c2f8282612ead565b5050565b600181565b611c4133611b43565b811115611c83576040517f08c379a0000000000000000000000000000000000000000000000000000000008152600401611c7a9061413f565b60405180910390fd5b6000600f42611c929190613d6b565b90506000611c9e610d82565b9050611caa3384612ead565b60005b600b80549050811015611ef2576000600b8281548110611cd057611ccf613c82565b5b9060005260206000200160009054906101000a900473ffffffffffffffffffffffffffffffffffffffff169050600081905060008173ffffffffffffffffffffffffffffffffffffffff166370a08231600760009054906101000a900473ffffffffffffffffffffffffffffffffffffffff166040518263ffffffff1660e01b8152600401611d5f9190613777565b602060405180830381865afa158015611d7c573d6000803e3d6000fd5b505050506040513d601f19601f82011682018060405250810190611da09190613dd6565b90506000611dc986611dbb8a8561309a90919063ffffffff16565b6130b090919063ffffffff16565b9050611df984600760009054906101000a900473ffffffffffffffffffffffffffffffffffffffff1630846132ec565b611e2684600660009054906101000a900473ffffffffffffffffffffffffffffffffffffffff1683613425565b600660009054906101000a900473ffffffffffffffffffffffffffffffffffffffff1673ffffffffffffffffffffffffffffffffffffffff166318cbafe5826000611e7088612651565b338c6040518663ffffffff1660e01b8152600401611e9295949392919061415f565b6000604051808303816000875af1158015611eb1573d6000803e3d6000fd5b505050506040513d6000823e3d601f19601f82011682018060405250810190611eda9190613f71565b50505050508080611eea90613ce0565b915050611cad565b50505050565b6000600560009054906101000a900473ffffffffffffffffffffffffffffffffffffffff16905090565b611f2a61296f565b73ffffffffffffffffffffffffffffffffffffffff16611f48611ef8565b73ffffffffffffffffffffffffffffffffffffffff1614611f9e576040517f08c379a0000000000000000000000000000000000000000000000000000000008152600401611f9590613c62565b60405180910390fd5b6000600b8054905014611fe6576040517f08c379a0000000000000000000000000000000000000000000000000000000008152600401611fdd90614205565b60405180910390fd5b60008484905090506000805b828110156122c8576040518060c001604052806001151581526020014264ffffffffff16815260200186868481811061202e5761202d613c82565b5b90506020020160208101906120439190614269565b6bffffffffffffffffffffffff16815260200186868481811061206957612068613c82565b5b905060200201602081019061207e9190614269565b6bffffffffffffffffffffffff1681526020018260ff1681526020016000815250600c60008989858181106120b6576120b5613c82565b5b90506020020160208101906120cb9190613903565b73ffffffffffffffffffffffffffffffffffffffff1673ffffffffffffffffffffffffffffffffffffffff16815260200190815260200160002060008201518160000160006101000a81548160ff02191690831515021790555060208201518160000160016101000a81548164ffffffffff021916908364ffffffffff16021790555060408201518160000160066101000a8154816bffffffffffffffffffffffff02191690836bffffffffffffffffffffffff16021790555060608201518160000160126101000a8154816bffffffffffffffffffffffff02191690836bffffffffffffffffffffffff160217905550608082015181600001601e6101000a81548160ff021916908360ff16021790555060a08201518160010155905050600b8787838181106121ff576121fe613c82565b5b90506020020160208101906122149190613903565b9080600181540180825580915050600190039060005260206000200160009091909190916101000a81548173ffffffffffffffffffffffffffffffffffffffff021916908373ffffffffffffffffffffffffffffffffffffffff1602179055506122b38286868481811061228b5761228a613c82565b5b90506020020160208101906122a09190614269565b6bffffffffffffffffffffffff16612b42565b915080806122c090613ce0565b915050611ff2565b5080600d819055506001600f60006101000a81548160ff0219169083151502179055507f183bed17d33ee5be9a47bb997aee6a152d84a34309cdb66f76301de0a40a138960405160405180910390a1505050505050565b60606004805461232e90613be4565b80601f016020809104026020016040519081016040528092919081815260200182805461235a90613be4565b80156123a75780601f1061237c576101008083540402835291602001916123a7565b820191906000526020600020905b81548152906001019060200180831161238a57829003601f168201915b5050505050905090565b6000806123bc61296f565b90506000600160008373ffffffffffffffffffffffffffffffffffffffff1673ffffffffffffffffffffffffffffffffffffffff16815260200190815260200160002060008673ffffffffffffffffffffffffffffffffffffffff1673ffffffffffffffffffffffffffffffffffffffff16815260200190815260200160002054905083811015612482576040517f08c379a000000000000000000000000000000000000000000000000000000000815260040161247990614308565b60405180910390fd5b61248f8286868403612977565b60019250505092915050565b60165481565b6000806124ac61296f565b90506124b9818585612c2c565b600191505092915050565b60185481565b60606000600267ffffffffffffffff8111156124e9576124e8613e33565b5b6040519080825280602002602001820160405280156125175781602001602082028036833780820191505090505b509050600660009054906101000a900473ffffffffffffffffffffffffffffffffffffffff1673ffffffffffffffffffffffffffffffffffffffff1663ad5c46486040518163ffffffff1660e01b8152600401602060405180830381865afa158015612587573d6000803e3d6000fd5b505050506040513d601f19601f820116820180604052508101906125ab9190613d3e565b816000815181106125bf576125be613c82565b5b602002602001019073ffffffffffffffffffffffffffffffffffffffff16908173ffffffffffffffffffffffffffffffffffffffff1681525050828160018151811061260e5761260d613c82565b5b602002602001019073ffffffffffffffffffffffffffffffffffffffff16908173ffffffffffffffffffffffffffffffffffffffff168152505080915050919050565b60606000600267ffffffffffffffff8111156126705761266f613e33565b5b60405190808252806020026020018201604052801561269e5781602001602082028036833780820191505090505b50905082816000815181106126b6576126b5613c82565b5b602002602001019073ffffffffffffffffffffffffffffffffffffffff16908173ffffffffffffffffffffffffffffffffffffffff1681525050600660009054906101000a900473ffffffffffffffffffffffffffffffffffffffff1673ffffffffffffffffffffffffffffffffffffffff1663ad5c46486040518163ffffffff1660e01b8152600401602060405180830381865afa15801561275d573d6000803e3d6000fd5b505050506040513d601f19601f820116820180604052508101906127819190613d3e565b8160018151811061279557612794613c82565b5b602002602001019073ffffffffffffffffffffffffffffffffffffffff16908173ffffffffffffffffffffffffffffffffffffffff168152505080915050919050565b6000600160008473ffffffffffffffffffffffffffffffffffffffff1673ffffffffffffffffffffffffffffffffffffffff16815260200190815260200160002060008373ffffffffffffffffffffffffffffffffffffffff1673ffffffffffffffffffffffffffffffffffffffff16815260200190815260200160002054905092915050565b61286761296f565b73ffffffffffffffffffffffffffffffffffffffff16612885611ef8565b73ffffffffffffffffffffffffffffffffffffffff16146128db576040517f08c379a00000000000000000000000000000000000000000000000000000000081526004016128d290613c62565b60405180910390fd5b600073ffffffffffffffffffffffffffffffffffffffff168173ffffffffffffffffffffffffffffffffffffffff16141561294b576040517f08c379a00000000000000000000000000000000000000000000000000000000081526004016129429061439a565b60405180910390fd5b61295481613226565b50565b60125481565b60108060000154908060010154905082565b600033905090565b600073ffffffffffffffffffffffffffffffffffffffff168373ffffffffffffffffffffffffffffffffffffffff1614156129e7576040517f08c379a00000000000000000000000000000000000000000000000000000000081526004016129de9061442c565b60405180910390fd5b600073ffffffffffffffffffffffffffffffffffffffff168273ffffffffffffffffffffffffffffffffffffffff161415612a57576040517f08c379a0000000000000000000000000000000000000000000000000000000008152600401612a4e906144be565b60405180910390fd5b80600160008573ffffffffffffffffffffffffffffffffffffffff1673ffffffffffffffffffffffffffffffffffffffff16815260200190815260200160002060008473ffffffffffffffffffffffffffffffffffffffff1673ffffffffffffffffffffffffffffffffffffffff168152602001908152602001600020819055508173ffffffffffffffffffffffffffffffffffffffff168373ffffffffffffffffffffffffffffffffffffffff167f8c5be1e5ebec7d5bd14f71427d1e84f3dd0314c0f7b2291e5b200ac8c7c3b92583604051612b35919061357e565b60405180910390a3505050565b6000808284612b519190613d6b565b905083811015612b96576040517f08c379a0000000000000000000000000000000000000000000000000000000008152600401612b8d9061452a565b60405180910390fd5b8091505092915050565b6000612bac84846127d8565b90507fffffffffffffffffffffffffffffffffffffffffffffffffffffffffffffffff8114612c265781811015612c18576040517f08c379a0000000000000000000000000000000000000000000000000000000008152600401612c0f90614596565b60405180910390fd5b612c258484848403612977565b5b50505050565b600073ffffffffffffffffffffffffffffffffffffffff168373ffffffffffffffffffffffffffffffffffffffff161415612c9c576040517f08c379a0000000000000000000000000000000000000000000000000000000008152600401612c9390614628565b60405180910390fd5b600073ffffffffffffffffffffffffffffffffffffffff168273ffffffffffffffffffffffffffffffffffffffff161415612d0c576040517f08c379a0000000000000000000000000000000000000000000000000000000008152600401612d03906146ba565b60405180910390fd5b612d1783838361355b565b60008060008573ffffffffffffffffffffffffffffffffffffffff1673ffffffffffffffffffffffffffffffffffffffff16815260200190815260200160002054905081811015612d9d576040517f08c379a0000000000000000000000000000000000000000000000000000000008152600401612d949061474c565b60405180910390fd5b8181036000808673ffffffffffffffffffffffffffffffffffffffff1673ffffffffffffffffffffffffffffffffffffffff16815260200190815260200160002081905550816000808573ffffffffffffffffffffffffffffffffffffffff1673ffffffffffffffffffffffffffffffffffffffff1681526020019081526020016000206000828254612e309190613d6b565b925050819055508273ffffffffffffffffffffffffffffffffffffffff168473ffffffffffffffffffffffffffffffffffffffff167fddf252ad1be2c89b69c2b068fc378daa952ba7f163c4a11628f55a4df523b3ef84604051612e94919061357e565b60405180910390a3612ea7848484613560565b50505050565b600073ffffffffffffffffffffffffffffffffffffffff168273ffffffffffffffffffffffffffffffffffffffff161415612f1d576040517f08c379a0000000000000000000000000000000000000000000000000000000008152600401612f14906147de565b60405180910390fd5b612f298260008361355b565b60008060008473ffffffffffffffffffffffffffffffffffffffff1673ffffffffffffffffffffffffffffffffffffffff16815260200190815260200160002054905081811015612faf576040517f08c379a0000000000000000000000000000000000000000000000000000000008152600401612fa690614870565b60405180910390fd5b8181036000808573ffffffffffffffffffffffffffffffffffffffff1673ffffffffffffffffffffffffffffffffffffffff1681526020019081526020016000208190555081600260008282546130069190614890565b92505081905550600073ffffffffffffffffffffffffffffffffffffffff168373ffffffffffffffffffffffffffffffffffffffff167fddf252ad1be2c89b69c2b068fc378daa952ba7f163c4a11628f55a4df523b3ef8460405161306b919061357e565b60405180910390a361307f83600084613560565b505050565b600081836130929190613d6b565b905092915050565b600081836130a891906148c4565b905092915050565b600081836130be919061494d565b905092915050565b600073ffffffffffffffffffffffffffffffffffffffff168273ffffffffffffffffffffffffffffffffffffffff161415613136576040517f08c379a000000000000000000000000000000000000000000000000000000000815260040161312d906149ca565b60405180910390fd5b6131426000838361355b565b80600260008282546131549190613d6b565b92505081905550806000808473ffffffffffffffffffffffffffffffffffffffff1673ffffffffffffffffffffffffffffffffffffffff16815260200190815260200160002060008282546131a99190613d6b565b925050819055508173ffffffffffffffffffffffffffffffffffffffff16600073ffffffffffffffffffffffffffffffffffffffff167fddf252ad1be2c89b69c2b068fc378daa952ba7f163c4a11628f55a4df523b3ef8360405161320e919061357e565b60405180910390a361322260008383613560565b5050565b6000600560009054906101000a900473ffffffffffffffffffffffffffffffffffffffff16905081600560006101000a81548173ffffffffffffffffffffffffffffffffffffffff021916908373ffffffffffffffffffffffffffffffffffffffff1602179055508173ffffffffffffffffffffffffffffffffffffffff168173ffffffffffffffffffffffffffffffffffffffff167f8be0079c531659141344cd1fd0a4f28419497f9722a3daafe3b4186f6b6457e060405160405180910390a35050565b6000808573ffffffffffffffffffffffffffffffffffffffff166323b872dd868686604051602401613320939291906149ea565b6040516020818303038152906040529060e01b6020820180517bffffffffffffffffffffffffffffffffffffffffffffffffffffffff838183161783525050505060405161336e9190614a5d565b6000604051808303816000865af19150503d80600081146133ab576040519150601f19603f3d011682016040523d82523d6000602084013e6133b0565b606091505b50915091508180156133de57506000815114806133dd5750808060200190518101906133dc9190614aa0565b5b5b61341d576040517f08c379a000000000000000000000000000000000000000000000000000000000815260040161341490614b3f565b60405180910390fd5b505050505050565b6000808473ffffffffffffffffffffffffffffffffffffffff1663095ea7b38585604051602401613457929190614b5f565b6040516020818303038152906040529060e01b6020820180517bffffffffffffffffffffffffffffffffffffffffffffffffffffffff83818316178352505050506040516134a59190614a5d565b6000604051808303816000865af19150503d80600081146134e2576040519150601f19603f3d011682016040523d82523d6000602084013e6134e7565b606091505b509150915081801561351557506000815114806135145750808060200190518101906135139190614aa0565b5b5b613554576040517f08c379a000000000000000000000000000000000000000000000000000000000815260040161354b90614bfa565b60405180910390fd5b5050505050565b505050565b505050565b6000819050919050565b61357881613565565b82525050565b6000602082019050613593600083018461356f565b92915050565b600081519050919050565b600082825260208201905092915050565b60005b838110156135d35780820151818401526020810190506135b8565b838111156135e2576000848401525b50505050565b6000601f19601f8301169050919050565b600061360482613599565b61360e81856135a4565b935061361e8185602086016135b5565b613627816135e8565b840191505092915050565b6000602082019050818103600083015261364c81846135f9565b905092915050565b6000604051905090565b600080fd5b600080fd5b600073ffffffffffffffffffffffffffffffffffffffff82169050919050565b600061369382613668565b9050919050565b6136a381613688565b81146136ae57600080fd5b50565b6000813590506136c08161369a565b92915050565b6136cf81613565565b81146136da57600080fd5b50565b6000813590506136ec816136c6565b92915050565b600080604083850312156137095761370861365e565b5b6000613717858286016136b1565b9250506020613728858286016136dd565b9150509250929050565b60008115159050919050565b61374781613732565b82525050565b6000602082019050613762600083018461373e565b92915050565b61377181613688565b82525050565b600060208201905061378c6000830184613768565b92915050565b6000806000606084860312156137ab576137aa61365e565b5b60006137b9868287016136b1565b93505060206137ca868287016136b1565b92505060406137db868287016136dd565b9150509250925092565b6000819050919050565b600061380a61380561380084613668565b6137e5565b613668565b9050919050565b600061381c826137ef565b9050919050565b600061382e82613811565b9050919050565b61383e81613823565b82525050565b60006020820190506138596000830184613835565b92915050565b600060ff82169050919050565b6138758161385f565b82525050565b6000602082019050613890600083018461386c565b92915050565b600080604083850312156138ad576138ac61365e565b5b60006138bb858286016136dd565b92505060206138cc858286016136dd565b9150509250929050565b6000602082840312156138ec576138eb61365e565b5b60006138fa848285016136dd565b91505092915050565b6000602082840312156139195761391861365e565b5b6000613927848285016136b1565b91505092915050565b600080fd5b600080fd5b600080fd5b60008083601f84011261395557613954613930565b5b8235905067ffffffffffffffff81111561397257613971613935565b5b60208301915083602082028301111561398e5761398d61393a565b5b9250929050565b60008083601f8401126139ab576139aa613930565b5b8235905067ffffffffffffffff8111156139c8576139c7613935565b5b6020830191508360208202830111156139e4576139e361393a565b5b9250929050565b60008060008060408587031215613a0557613a0461365e565b5b600085013567ffffffffffffffff811115613a2357613a22613663565b5b613a2f8782880161393f565b9450945050602085013567ffffffffffffffff811115613a5257613a51613663565b5b613a5e87828801613995565b925092505092959194509250565b600081519050919050565b600082825260208201905092915050565b6000819050602082019050919050565b613aa181613688565b82525050565b6000613ab38383613a98565b60208301905092915050565b6000602082019050919050565b6000613ad782613a6c565b613ae18185613a77565b9350613aec83613a88565b8060005b83811015613b1d578151613b048882613aa7565b9750613b0f83613abf565b925050600181019050613af0565b5085935050505092915050565b60006020820190508181036000830152613b448184613acc565b905092915050565b60008060408385031215613b6357613b6261365e565b5b6000613b71858286016136b1565b9250506020613b82858286016136b1565b9150509250929050565b6000604082019050613ba1600083018561356f565b613bae602083018461356f565b9392505050565b7f4e487b7100000000000000000000000000000000000000000000000000000000600052602260045260246000fd5b60006002820490506001821680613bfc57607f821691505b60208210811415613c1057613c0f613bb5565b5b50919050565b7f4f776e61626c653a2063616c6c6572206973206e6f7420746865206f776e6572600082015250565b6000613c4c6020836135a4565b9150613c5782613c16565b602082019050919050565b60006020820190508181036000830152613c7b81613c3f565b9050919050565b7f4e487b7100000000000000000000000000000000000000000000000000000000600052603260045260246000fd5b7f4e487b7100000000000000000000000000000000000000000000000000000000600052601160045260246000fd5b6000613ceb82613565565b91507fffffffffffffffffffffffffffffffffffffffffffffffffffffffffffffffff821415613d1e57613d1d613cb1565b5b600182019050919050565b600081519050613d388161369a565b92915050565b600060208284031215613d5457613d5361365e565b5b6000613d6284828501613d29565b91505092915050565b6000613d7682613565565b9150613d8183613565565b9250827fffffffffffffffffffffffffffffffffffffffffffffffffffffffffffffffff03821115613db657613db5613cb1565b5b828201905092915050565b600081519050613dd0816136c6565b92915050565b600060208284031215613dec57613deb61365e565b5b6000613dfa84828501613dc1565b91505092915050565b6000604082019050613e18600083018561356f565b8181036020830152613e2a8184613acc565b90509392505050565b7f4e487b7100000000000000000000000000000000000000000000000000000000600052604160045260246000fd5b613e6b826135e8565b810181811067ffffffffffffffff82111715613e8a57613e89613e33565b5b80604052505050565b6000613e9d613654565b9050613ea98282613e62565b919050565b600067ffffffffffffffff821115613ec957613ec8613e33565b5b602082029050602081019050919050565b6000613eed613ee884613eae565b613e93565b90508083825260208201905060208402830185811115613f1057613f0f61393a565b5b835b81811015613f395780613f258882613dc1565b845260208401935050602081019050613f12565b5050509392505050565b600082601f830112613f5857613f57613930565b5b8151613f68848260208601613eda565b91505092915050565b600060208284031215613f8757613f8661365e565b5b600082015167ffffffffffffffff811115613fa557613fa4613663565b5b613fb184828501613f43565b91505092915050565b6000819050919050565b6000613fdf613fda613fd584613fba565b6137e5565b613565565b9050919050565b613fef81613fc4565b82525050565b600060808201905061400a6000830187613fe6565b818103602083015261401c8186613acc565b905061402b6040830185613768565b614038606083018461356f565b95945050505050565b600081905092915050565b50565b600061405c600083614041565b91506140678261404c565b600082019050919050565b600061407d8261404f565b9150819050919050565b7f726566756e64206661696c656400000000000000000000000000000000000000600082015250565b60006140bd600d836135a4565b91506140c882614087565b602082019050919050565b600060208201905081810360008301526140ec816140b0565b9050919050565b7f6e6f742062616c616e6365000000000000000000000000000000000000000000600082015250565b6000614129600b836135a4565b9150614134826140f3565b602082019050919050565b600060208201905081810360008301526141588161411c565b9050919050565b600060a082019050614174600083018861356f565b6141816020830187613fe6565b81810360408301526141938186613acc565b90506141a26060830185613768565b6141af608083018461356f565b9695505050505050565b7f494e495449414c495a4544000000000000000000000000000000000000000000600082015250565b60006141ef600b836135a4565b91506141fa826141b9565b602082019050919050565b6000602082019050818103600083015261421e816141e2565b9050919050565b60006bffffffffffffffffffffffff82169050919050565b61424681614225565b811461425157600080fd5b50565b6000813590506142638161423d565b92915050565b60006020828403121561427f5761427e61365e565b5b600061428d84828501614254565b91505092915050565b7f45524332303a2064656372656173656420616c6c6f77616e63652062656c6f7760008201527f207a65726f000000000000000000000000000000000000000000000000000000602082015250565b60006142f26025836135a4565b91506142fd82614296565b604082019050919050565b60006020820190508181036000830152614321816142e5565b9050919050565b7f4f776e61626c653a206e6577206f776e657220697320746865207a65726f206160008201527f6464726573730000000000000000000000000000000000000000000000000000602082015250565b60006143846026836135a4565b915061438f82614328565b604082019050919050565b600060208201905081810360008301526143b381614377565b9050919050565b7f45524332303a20617070726f76652066726f6d20746865207a65726f2061646460008201527f7265737300000000000000000000000000000000000000000000000000000000602082015250565b60006144166024836135a4565b9150614421826143ba565b604082019050919050565b6000602082019050818103600083015261444581614409565b9050919050565b7f45524332303a20617070726f766520746f20746865207a65726f20616464726560008201527f7373000000000000000000000000000000000000000000000000000000000000602082015250565b60006144a86022836135a4565b91506144b38261444c565b604082019050919050565b600060208201905081810360008301526144d78161449b565b9050919050565b7f4552525f4144445f4f564552464c4f5700000000000000000000000000000000600082015250565b60006145146010836135a4565b915061451f826144de565b602082019050919050565b6000602082019050818103600083015261454381614507565b9050919050565b7f45524332303a20696e73756666696369656e7420616c6c6f77616e6365000000600082015250565b6000614580601d836135a4565b915061458b8261454a565b602082019050919050565b600060208201905081810360008301526145af81614573565b9050919050565b7f45524332303a207472616e736665722066726f6d20746865207a65726f20616460008201527f6472657373000000000000000000000000000000000000000000000000000000602082015250565b60006146126025836135a4565b915061461d826145b6565b604082019050919050565b6000602082019050818103600083015261464181614605565b9050919050565b7f45524332303a207472616e7366657220746f20746865207a65726f206164647260008201527f6573730000000000000000000000000000000000000000000000000000000000602082015250565b60006146a46023836135a4565b91506146af82614648565b604082019050919050565b600060208201905081810360008301526146d381614697565b9050919050565b7f45524332303a207472616e7366657220616d6f756e742065786365656473206260008201527f616c616e63650000000000000000000000000000000000000000000000000000602082015250565b60006147366026836135a4565b9150614741826146da565b604082019050919050565b6000602082019050818103600083015261476581614729565b9050919050565b7f45524332303a206275726e2066726f6d20746865207a65726f2061646472657360008201527f7300000000000000000000000000000000000000000000000000000000000000602082015250565b60006147c86021836135a4565b91506147d38261476c565b604082019050919050565b600060208201905081810360008301526147f7816147bb565b9050919050565b7f45524332303a206275726e20616d6f756e7420657863656564732062616c616e60008201527f6365000000000000000000000000000000000000000000000000000000000000602082015250565b600061485a6022836135a4565b9150614865826147fe565b604082019050919050565b600060208201905081810360008301526148898161484d565b9050919050565b600061489b82613565565b91506148a683613565565b9250828210156148b9576148b8613cb1565b5b828203905092915050565b60006148cf82613565565b91506148da83613565565b9250817fffffffffffffffffffffffffffffffffffffffffffffffffffffffffffffffff048311821515161561491357614912613cb1565b5b828202905092915050565b7f4e487b7100000000000000000000000000000000000000000000000000000000600052601260045260246000fd5b600061495882613565565b915061496383613565565b9250826149735761497261491e565b5b828204905092915050565b7f45524332303a206d696e7420746f20746865207a65726f206164647265737300600082015250565b60006149b4601f836135a4565b91506149bf8261497e565b602082019050919050565b600060208201905081810360008301526149e3816149a7565b9050919050565b60006060820190506149ff6000830186613768565b614a0c6020830185613768565b614a19604083018461356f565b949350505050565b600081519050919050565b6000614a3782614a21565b614a418185614041565b9350614a518185602086016135b5565b80840191505092915050565b6000614a698284614a2c565b915081905092915050565b614a7d81613732565b8114614a8857600080fd5b50565b600081519050614a9a81614a74565b92915050565b600060208284031215614ab657614ab561365e565b5b6000614ac484828501614a8b565b91505092915050565b7f5472616e7366657248656c7065723a3a7472616e7366657246726f6d3a20747260008201527f616e7366657246726f6d206661696c6564000000000000000000000000000000602082015250565b6000614b296031836135a4565b9150614b3482614acd565b604082019050919050565b60006020820190508181036000830152614b5881614b1c565b9050919050565b6000604082019050614b746000830185613768565b614b81602083018461356f565b9392505050565b7f5472616e7366657248656c7065723a3a73616665417070726f76653a2061707060008201527f726f7665206661696c6564000000000000000000000000000000000000000000602082015250565b6000614be4602b836135a4565b9150614bef82614b88565b604082019050919050565b60006020820190508181036000830152614c1381614bd7565b905091905056fea264697066735822122098b0292690eba360c01a2d532ca184ec2420f3fbe95ac6f52755884a09fca15864736f6c634300080a0033",
  "immutableReferences": {},
  "source": "pragma solidity <=0.8.10;\n\nimport \"./IPancakeRouter02.sol\";\nimport \"@openzeppelin/contracts/utils/math/SafeMath.sol\";\nimport \"@openzeppelin/contracts/token/ERC20/IERC20.sol\";\nimport \"./IToken.sol\";\nimport \"@uniswap/lib/contracts/libraries/TransferHelper.sol\";\nimport \"@uniswap/lib/contracts/libraries/TransferHelper.sol\";\nimport \"@openzeppelin/contracts/token/ERC20/ERC20.sol\";\nimport \"@openzeppelin/contracts/token/ERC20/extensions/ERC20Burnable.sol\";\nimport \"@openzeppelin/contracts/access/Ownable.sol\";\nimport \"./MyModule.sol\";\n\n// // SPDX-License-Identifier: MIT\n// pragma solidity <=0.7.6;\n\n/************************************************************************************************\nOriginally from https://github.com/balancer-labs/balancer-core/blob/master/contracts/BConst.sol\n\nThis source code has been modified from the original, which was copied from the github repository\nat commit hash f4ed5d65362a8d6cec21662fb6eae233b0babc1f.\n\nSubject to the GPL-3.0 license\n*************************************************************************************************/\n\ncontract BConst {\n    uint256 public constant VERSION_NUMBER = 1;\n\n    /* ---  Weight Updates  --- */\n\n    // Minimum time passed between each weight update for a token.\n    uint256 internal constant WEIGHT_UPDATE_DELAY = 1 hours;\n\n    // Maximum percent by which a weight can adjust at a time\n    // relative to the current weight.\n    // The number of iterations needed to move from weight A to weight B is the floor of:\n    // (A > B): (ln(A) - ln(B)) / ln(1.01)\n    // (B > A): (ln(A) - ln(B)) / ln(0.99)\n    uint256 internal constant WEIGHT_CHANGE_PCT = BONE / 100;\n\n    uint256 internal constant BONE = 10**18;\n\n    uint256 internal constant MIN_BOUND_TOKENS = 2;\n    uint256 internal constant MAX_BOUND_TOKENS = 25;\n\n    // Minimum swap fee.\n    uint256 internal constant MIN_FEE = BONE / 10**6;\n    // Maximum swap or exit fee.\n    uint256 internal constant MAX_FEE = BONE / 10;\n    // Actual exit fee. 1%\n    uint256 internal constant EXIT_FEE = 1e16;\n\n    // Default total of all desired weights. Can differ by up to BONE.\n    uint256 internal constant DEFAULT_TOTAL_WEIGHT = BONE * 25;\n    // Minimum weight for any token (1/100).\n    uint256 internal constant MIN_WEIGHT = BONE / 8;\n    uint256 internal constant MAX_WEIGHT = BONE * 25;\n    // Maximum total weight.\n    uint256 internal constant MAX_TOTAL_WEIGHT = BONE * 26;\n    // Minimum balance for a token (only applied at initialization)\n    uint256 internal constant MIN_BALANCE = BONE / 10**12;\n    // Initial pool tokens\n    uint256 internal constant INIT_POOL_SUPPLY = BONE * 100;\n\n    uint256 internal constant MIN_BPOW_BASE = 1 wei;\n    uint256 internal constant MAX_BPOW_BASE = (2 * BONE) - 1 wei;\n    uint256 internal constant BPOW_PRECISION = BONE / 10**10;\n\n    // Maximum ratio of input tokens to balance for swaps.\n    uint256 internal constant MAX_IN_RATIO = BONE / 2;\n    // Maximum ratio of output tokens to balance for swaps.\n    uint256 internal constant MAX_OUT_RATIO = (BONE / 3) + 1 wei;\n}\n\n/************************************************************************************************\nOriginally from https://github.com/balancer-labs/balancer-core/blob/master/contracts/BNum.sol\n\nThis source code has been modified from the original, which was copied from the github repository\nat commit hash f4ed5d65362a8d6cec21662fb6eae233b0babc1f.\n\nSubject to the GPL-3.0 license\n*************************************************************************************************/\n\ncontract BNum is BConst {\n    function btoi(uint256 a) internal pure returns (uint256) {\n        return a / BONE;\n    }\n\n    function bfloor(uint256 a) internal pure returns (uint256) {\n        return btoi(a) * BONE;\n    }\n\n    function badd(uint256 a, uint256 b) internal pure returns (uint256) {\n        uint256 c = a + b;\n        require(c >= a, \"ERR_ADD_OVERFLOW\");\n        return c;\n    }\n\n    function bsub(uint256 a, uint256 b) internal pure returns (uint256) {\n        (uint256 c, bool flag) = bsubSign(a, b);\n        require(!flag, \"ERR_SUB_UNDERFLOW\");\n        return c;\n    }\n\n    function bsubSign(uint256 a, uint256 b)\n        internal\n        pure\n        returns (uint256, bool)\n    {\n        if (a >= b) {\n            return (a - b, false);\n        } else {\n            return (b - a, true);\n        }\n    }\n\n    function bmul(uint256 a, uint256 b) internal pure returns (uint256) {\n        uint256 c0 = a * b;\n        require(a == 0 || c0 / a == b, \"ERR_MUL_OVERFLOW\");\n        uint256 c1 = c0 + (BONE / 2);\n        require(c1 >= c0, \"ERR_MUL_OVERFLOW\");\n        uint256 c2 = c1 / BONE;\n        return c2;\n    }\n\n    function bdiv(uint256 a, uint256 b) internal pure returns (uint256) {\n        require(b != 0, \"ERR_DIV_ZERO\");\n        uint256 c0 = a * BONE;\n        require(a == 0 || c0 / a == BONE, \"ERR_DIV_INTERNAL\"); // bmul overflow\n        uint256 c1 = c0 + (b / 2);\n        require(c1 >= c0, \"ERR_DIV_INTERNAL\"); //  badd require\n        uint256 c2 = c1 / b;\n        return c2;\n    }\n\n    // DSMath.wpow\n    function bpowi(uint256 a, uint256 n) internal pure returns (uint256) {\n        uint256 z = n % 2 != 0 ? a : BONE;\n\n        for (n /= 2; n != 0; n /= 2) {\n            a = bmul(a, a);\n\n            if (n % 2 != 0) {\n                z = bmul(z, a);\n            }\n        }\n        return z;\n    }\n\n    // Compute b^(e.w) by splitting it into (b^e)*(b^0.w).\n    // Use `bpowi` for `b^e` and `bpowK` for k iterations\n    // of approximation of b^0.w\n    function bpow(uint256 base, uint256 exp) internal pure returns (uint256) {\n        require(base >= MIN_BPOW_BASE, \"ERR_BPOW_BASE_TOO_LOW\");\n        require(base <= MAX_BPOW_BASE, \"ERR_BPOW_BASE_TOO_HIGH\");\n\n        uint256 whole = bfloor(exp);\n        uint256 remain = bsub(exp, whole);\n\n        uint256 wholePow = bpowi(base, btoi(whole));\n\n        if (remain == 0) {\n            return wholePow;\n        }\n\n        uint256 partialResult = bpowApprox(base, remain, BPOW_PRECISION);\n        return bmul(wholePow, partialResult);\n    }\n\n    function bpowApprox(\n        uint256 base,\n        uint256 exp,\n        uint256 precision\n    ) internal pure returns (uint256) {\n        // term 0:\n        uint256 a = exp;\n        (uint256 x, bool xneg) = bsubSign(base, BONE);\n        uint256 term = BONE;\n        uint256 sum = term;\n        bool negative = false;\n\n        // term(k) = numer / denom\n        //         = (product(a - i - 1, i=1-->k) * x^k) / (k!)\n        // each iteration, multiply previous term by (a-(k-1)) * x / k\n        // continue until term is less than precision\n        for (uint256 i = 1; term >= precision; i++) {\n            uint256 bigK = i * BONE;\n            (uint256 c, bool cneg) = bsubSign(a, bsub(bigK, BONE));\n            term = bmul(term, bmul(c, x));\n            term = bdiv(term, bigK);\n            if (term == 0) break;\n\n            if (xneg) negative = !negative;\n            if (cneg) negative = !negative;\n            if (negative) {\n                sum = bsub(sum, term);\n            } else {\n                sum = badd(sum, term);\n            }\n        }\n\n        return sum;\n    }\n}\n\n/*\nOriginally from https://github.com/balancer-labs/balancer-core/blob/master/contracts/BMath.sol\nThis source code has been modified from the original, which was copied from the github repository\nat commit hash f4ed5d65362a8d6cec21662fb6eae233b0babc1f.\nSubject to the GPL-3.0 license\n*/\n\ncontract BMath is BConst, BNum {\n    /*\n    // calcSpotPrice                                                                             \n    // sP = spotPrice                                                                            \n    // bI = tokenBalanceIn                ( bI / wI )         1                                  \n    // bO = tokenBalanceOut         sP =  -----------  *  ----------                             \n    // wI = tokenWeightIn                 ( bO / wO )     ( 1 - sF )                             \n    // wO = tokenWeightOut                                                                       \n    // sF = swapFee                                                                              \n  */\n    function calcSpotPrice(\n        uint256 tokenBalanceIn,\n        uint256 tokenWeightIn,\n        uint256 tokenBalanceOut,\n        uint256 tokenWeightOut,\n        uint256 swapFee\n    ) internal pure returns (uint256 spotPrice) {\n        uint256 numer = bdiv(tokenBalanceIn, tokenWeightIn);\n        uint256 denom = bdiv(tokenBalanceOut, tokenWeightOut);\n        uint256 ratio = bdiv(numer, denom);\n        uint256 scale = bdiv(BONE, bsub(BONE, swapFee));\n        return (spotPrice = bmul(ratio, scale));\n    }\n\n    /*\n    // calcOutGivenIn                                                                            \n    // aO = tokenAmountOut                                                                       \n    // bO = tokenBalanceOut                                                                      \n    // bI = tokenBalanceIn              /      /            bI             \\    (wI / wO) \\      \n    // aI = tokenAmountIn    aO = bO * |  1 - | --------------------------  | ^            |     \n    // wI = tokenWeightIn               \\      \\ ( bI + ( aI * ( 1 - sF )) /              /      \n    // wO = tokenWeightOut                                                                       \n    // sF = swapFee                                                                              \n  */\n    function calcOutGivenIn(\n        uint256 tokenBalanceIn,\n        uint256 tokenWeightIn,\n        uint256 tokenBalanceOut,\n        uint256 tokenWeightOut,\n        uint256 tokenAmountIn,\n        uint256 swapFee\n    ) internal pure returns (uint256 tokenAmountOut) {\n        uint256 weightRatio = bdiv(tokenWeightIn, tokenWeightOut);\n        uint256 adjustedIn = bsub(BONE, swapFee);\n        adjustedIn = bmul(tokenAmountIn, adjustedIn);\n        uint256 y = bdiv(tokenBalanceIn, badd(tokenBalanceIn, adjustedIn));\n        uint256 foo = bpow(y, weightRatio);\n        uint256 bar = bsub(BONE, foo);\n        tokenAmountOut = bmul(tokenBalanceOut, bar);\n        return tokenAmountOut;\n    }\n\n    /*\n    // calcInGivenOut                                                                            \n    // aI = tokenAmountIn                                                                        \n    // bO = tokenBalanceOut               /  /     bO      \\    (wO / wI)      \\                 \n    // bI = tokenBalanceIn          bI * |  | ------------  | ^            - 1  |                \n    // aO = tokenAmountOut    aI =        \\  \\ ( bO - aO ) /                   /                 \n    // wI = tokenWeightIn           --------------------------------------------                 \n    // wO = tokenWeightOut                          ( 1 - sF )                                   \n    // sF = swapFee                                                                              \n  */\n    function calcInGivenOut(\n        uint256 tokenBalanceIn,\n        uint256 tokenWeightIn,\n        uint256 tokenBalanceOut,\n        uint256 tokenWeightOut,\n        uint256 tokenAmountOut,\n        uint256 swapFee\n    ) internal pure returns (uint256 tokenAmountIn) {\n        uint256 weightRatio = bdiv(tokenWeightOut, tokenWeightIn);\n        uint256 diff = bsub(tokenBalanceOut, tokenAmountOut);\n        uint256 y = bdiv(tokenBalanceOut, diff);\n        uint256 foo = bpow(y, weightRatio);\n        foo = bsub(foo, BONE);\n        tokenAmountIn = bsub(BONE, swapFee);\n        tokenAmountIn = bdiv(bmul(tokenBalanceIn, foo), tokenAmountIn);\n        return tokenAmountIn;\n    }\n\n    // calcPoolOutGivenSingleIn\n    // pAo = poolAmountOut         /                                              \\\n    // tAi = tokenAmountIn        ///      /     //    wI \\      \\\\       \\     wI \\\n    // wI = tokenWeightIn        //| tAi *| 1 - || 1 - --  | * sF || + tBi \\    --  \\\n    // tW = totalWeight     pAo=||  \\      \\     \\\\    tW /      //         | ^ tW   | * pS - pS\n    // tBi = tokenBalanceIn      \\\\  ------------------------------------- /        /\n    // pS = poolSupply            \\\\                    tBi               /        /\n    // sF = swapFee                \\                                              /\n\n    // Charge the trading fee for the proportion of tokenAi\n    ///  which is implicitly traded to the other pool tokens.\n    // That proportion is (1- weightTokenIn)\n    // tokenAiAfterFee = tAi * (1 - (1-weightTi) * poolFee);\n    function calcPoolOutGivenSingleIn(\n        uint256 tokenBalanceIn,\n        uint256 tokenWeightIn,\n        uint256 poolSupply,\n        uint256 totalWeight,\n        uint256 tokenAmountIn,\n        uint256 swapFee\n    ) internal pure returns (uint256 poolAmountOut) {\n        uint256 normalizedWeight = bdiv(tokenWeightIn, totalWeight);\n        uint256 zaz = bmul(bsub(BONE, normalizedWeight), swapFee);\n        uint256 tokenAmountInAfterFee = bmul(tokenAmountIn, bsub(BONE, zaz));\n\n        uint256 newTokenBalanceIn = badd(tokenBalanceIn, tokenAmountInAfterFee);\n        uint256 tokenInRatio = bdiv(newTokenBalanceIn, tokenBalanceIn);\n\n        // uint newPoolSupply = (ratioTi ^ weightTi) * poolSupply;\n        uint256 poolRatio = bpow(tokenInRatio, normalizedWeight);\n        uint256 newPoolSupply = bmul(poolRatio, poolSupply);\n        poolAmountOut = bsub(newPoolSupply, poolSupply);\n        return poolAmountOut;\n    }\n\n    /*\n    // calcSingleInGivenPoolOut                                                                  \n    // tAi = tokenAmountIn              //(pS + pAo)\\     /    1    \\\\                           \n    // pS = poolSupply                 || ---------  | ^ | --------- || * bI - bI                \n    // pAo = poolAmountOut              \\\\    pS    /     \\(wI / tW)//                           \n    // bI = balanceIn          tAi =  --------------------------------------------               \n    // wI = weightIn                              /      wI  \\                                   \n    // tW = totalWeight                          |  1 - ----  |  * sF                            \n    // sF = swapFee                               \\      tW  /                                  \n  */\n    function calcSingleInGivenPoolOut(\n        uint256 tokenBalanceIn,\n        uint256 tokenWeightIn,\n        uint256 poolSupply,\n        uint256 totalWeight,\n        uint256 poolAmountOut,\n        uint256 swapFee\n    ) internal pure returns (uint256 tokenAmountIn) {\n        uint256 normalizedWeight = bdiv(tokenWeightIn, totalWeight);\n        uint256 newPoolSupply = badd(poolSupply, poolAmountOut);\n        uint256 poolRatio = bdiv(newPoolSupply, poolSupply);\n\n        //uint newBalTi = poolRatio^(1/weightTi) * balTi;\n        uint256 boo = bdiv(BONE, normalizedWeight);\n        uint256 tokenInRatio = bpow(poolRatio, boo);\n        uint256 newTokenBalanceIn = bmul(tokenInRatio, tokenBalanceIn);\n        uint256 tokenAmountInAfterFee = bsub(newTokenBalanceIn, tokenBalanceIn);\n        // Do reverse order of fees charged in joinswap_ExternAmountIn, this way\n        //     ``` pAo == joinswap_ExternAmountIn(Ti, joinswap_PoolAmountOut(pAo, Ti)) ```\n        //uint tAi = tAiAfterFee / (1 - (1-weightTi) * swapFee) ;\n        uint256 zar = bmul(bsub(BONE, normalizedWeight), swapFee);\n        tokenAmountIn = bdiv(tokenAmountInAfterFee, bsub(BONE, zar));\n        return tokenAmountIn;\n    }\n\n    /*\n    // calcSingleOutGivenPoolIn                                                                  \n    // tAo = tokenAmountOut            /      /                                             \\\\   \n    // bO = tokenBalanceOut           /      // pS - (pAi * (1 - eF)) \\     /    1    \\      \\\\  \n    // pAi = poolAmountIn            | bO - || ----------------------- | ^ | --------- | * b0 || \n    // ps = poolSupply                \\      \\\\          pS           /     \\(wO / tW)/      //  \n    // wI = tokenWeightIn      tAo =   \\      \\                                             //   \n    // tW = totalWeight                    /     /      wO \\       \\                             \n    // sF = swapFee                    *  | 1 - |  1 - ---- | * sF  |                            \n    // eF = exitFee                        \\     \\      tW /       /                             \n  */\n    function calcSingleOutGivenPoolIn(\n        uint256 tokenBalanceOut,\n        uint256 tokenWeightOut,\n        uint256 poolSupply,\n        uint256 totalWeight,\n        uint256 poolAmountIn,\n        uint256 swapFee\n    ) internal pure returns (uint256 tokenAmountOut) {\n        uint256 normalizedWeight = bdiv(tokenWeightOut, totalWeight);\n        // charge exit fee on the pool token side\n        // pAiAfterExitFee = pAi*(1-exitFee)\n        uint256 poolAmountInAfterExitFee = bmul(\n            poolAmountIn,\n            bsub(BONE, EXIT_FEE)\n        );\n        uint256 newPoolSupply = bsub(poolSupply, poolAmountInAfterExitFee);\n        uint256 poolRatio = bdiv(newPoolSupply, poolSupply);\n\n        // newBalTo = poolRatio^(1/weightTo) * balTo;\n        uint256 tokenOutRatio = bpow(poolRatio, bdiv(BONE, normalizedWeight));\n        uint256 newTokenBalanceOut = bmul(tokenOutRatio, tokenBalanceOut);\n\n        uint256 tokenAmountOutBeforeSwapFee = bsub(\n            tokenBalanceOut,\n            newTokenBalanceOut\n        );\n\n        // charge swap fee on the output token side\n        //uint tAo = tAoBeforeSwapFee * (1 - (1-weightTo) * swapFee)\n        uint256 zaz = bmul(bsub(BONE, normalizedWeight), swapFee);\n        tokenAmountOut = bmul(tokenAmountOutBeforeSwapFee, bsub(BONE, zaz));\n        return tokenAmountOut;\n    }\n\n    /*\n    // calcPoolInGivenSingleOut                                                                  \n    // pAi = poolAmountIn               // /               tAo             \\\\     / wO \\     \\   \n    // bO = tokenBalanceOut            // | bO - -------------------------- |\\   | ---- |     \\  \n    // tAo = tokenAmountOut      pS - ||   \\     1 - ((1 - (tO / tW)) * sF)/  | ^ \\ tW /  * pS | \n    // ps = poolSupply                 \\\\ -----------------------------------/                /  \n    // wO = tokenWeightOut  pAi =       \\\\               bO                 /                /   \n    // tW = totalWeight           -------------------------------------------------------------  \n    // sF = swapFee                                        ( 1 - eF )                            \n    // eF = exitFee                                                                              \n    */\n    function calcPoolInGivenSingleOut(\n        uint256 tokenBalanceOut,\n        uint256 tokenWeightOut,\n        uint256 poolSupply,\n        uint256 totalWeight,\n        uint256 tokenAmountOut,\n        uint256 swapFee\n    ) internal pure returns (uint256 poolAmountIn) {\n        // charge swap fee on the output token side\n        uint256 normalizedWeight = bdiv(tokenWeightOut, totalWeight);\n        //uint tAoBeforeSwapFee = tAo / (1 - (1-weightTo) * swapFee) ;\n        uint256 zoo = bsub(BONE, normalizedWeight);\n        uint256 zar = bmul(zoo, swapFee);\n        uint256 tokenAmountOutBeforeSwapFee = bdiv(\n            tokenAmountOut,\n            bsub(BONE, zar)\n        );\n\n        uint256 newTokenBalanceOut = bsub(\n            tokenBalanceOut,\n            tokenAmountOutBeforeSwapFee\n        );\n        uint256 tokenOutRatio = bdiv(newTokenBalanceOut, tokenBalanceOut);\n\n        //uint newPoolSupply = (ratioTo ^ weightTo) * poolSupply;\n        uint256 poolRatio = bpow(tokenOutRatio, normalizedWeight);\n        uint256 newPoolSupply = bmul(poolRatio, poolSupply);\n        uint256 poolAmountInAfterExitFee = bsub(poolSupply, newPoolSupply);\n\n        // charge exit fee on the pool token side\n        // pAi = pAiAfterExitFee/(1-exitFee)\n        poolAmountIn = bdiv(poolAmountInAfterExitFee, bsub(BONE, EXIT_FEE));\n        return poolAmountIn;\n    }\n}\n\ninterface itoken {\n    function mint(address to, uint256 amount) external;\n\n    function burn(address to, uint256 amount) external;\n\n    function allowance(address owner, address spender)\n        external\n        view\n        returns (uint256);\n\n    function approve(address spender, uint256 amount) external returns (bool);\n\n    function transferFrom(\n        address from,\n        address to,\n        uint256 amount\n    ) external returns (bool);\n}\n\ncontract TokenBase is ERC20, ERC20Burnable, Ownable {\n    constructor() ERC20(\"INDEXLY\", \"IDX\") {}\n}\n\ncontract IndexSwap is TokenBase, BMath {\n    address internal constant pancakeSwapAddress =\n        0x10ED43C718714eb63d5aA57B78B54704E256024E; //Router for bsc mainnet\n\n    IPancakeRouter02 public pancakeSwapRouter;\n\n    // IERC20 public token;\n\n    using SafeMath for uint256;\n\n    address private vault = 0x67C9E63b7288b7bf88Ce114C474CE2fB50ebC8F0;\n\n    address[2] tokenDefult = [\n        0x7130d2A12B9BCbFAe4f2634d864A1Ee1Ce3Ead9c, // BTC\n        0x2170Ed0880ac9A755fd29B2688956BD959F933F8 // ETH\n    ];\n\n    uint96[2] denormsDefult = [1, 1];\n    //uint96[10] denormsDefult = [1, 1, 1, 1, 1, 1, 1, 1, 1, 1];\n    //uint totalSum;\n\n    struct rate {\n        uint256 numerator;\n        uint256 denominator;\n    }\n\n    /**\n     * @dev Token record data structure\n     * @param bound is token bound to pool\n     * @param ready has token been initialized\n     * @param lastDenormUpdate timestamp of last denorm change\n     * @param denorm denormalized weight\n     * @param desiredDenorm desired denormalized weight (used for incremental changes)\n     * @param index index of address in tokens array\n     * @param balance token balance\n     */\n    struct Record {\n        bool ready;\n        uint40 lastDenormUpdate;\n        uint96 denorm;\n        uint96 desiredDenorm;\n        uint8 index;\n        uint256 balance;\n    }\n    // Array of underlying tokens in the pool.\n    address[] internal _tokens;\n\n    // Internal records of the pool's underlying tokens\n    mapping(address => Record) internal _records;\n\n    // Total denormalized weight of the pool.\n    uint256 internal _totalWeight;\n\n    mapping(address => uint256) admins;\n\n    // True if PUBLIC can call SWAP & JOIN functions\n    bool internal _publicSwap;\n\n    rate public currentRate;\n\n    constructor() {\n        pancakeSwapRouter = IPancakeRouter02(pancakeSwapAddress);\n    }\n\n    /** @dev Emitted when public trades are enabled. */\n    event LOG_PUBLIC_SWAP_ENABLED();\n\n    uint256 public amount1;\n    uint256 public amount2;\n    uint256 public ethSupply;\n    uint256 public ethSupplyBNB;\n\n    uint256 public btcSupply;\n    uint256 public btcSupplyBNB;\n\n    uint256 public totalVaultValue;\n\n    /*function debugData(uint256 cryptoAmount) public {\n        if (totalSupply() > 0) {\n            // all\n        uint256 totalVaultValue;\n        uint256[] memory tokenSupplyBNB;\n            \n        for (uint256 i = 0; i < _tokens.length; i++) {\n            IERC20 token = IERC20(_tokens[i]);\n            uint256 tokenSupply = token.balanceOf(vault);\n            tokenSupplyBNB[i] = pancakeSwapRouter.getAmountsOut(\n            tokenSupply,\n            getPathForToken(_tokens[0])\n            )[1];\n\n            totalVaultValue = totalVaultValue.add(tokenSupplyBNB[i]);\n        }\n\n        amount1 = tokenSupplyBNB[0].mul(cryptoAmount).div(totalVaultValue);\n        amount2 = tokenSupplyBNB[1].mul(cryptoAmount).div(totalVaultValue);\n    }*/\n\n    /**\n     * @dev Sets up the initial assets for the pool.\n     *\n     * @param tokens Underlying tokens to initialize the pool with\n     * @param denorms Initial denormalized weights for the tokens\n     */\n    function initialize(address[] calldata tokens, uint96[] calldata denorms)\n        external\n        onlyOwner\n    {\n        require(_tokens.length == 0, \"INITIALIZED\");\n        uint256 len = tokens.length;\n        uint256 totalWeight = 0;\n        for (uint256 i = 0; i < len; i++) {\n            _records[tokens[i]] = Record({\n                ready: true,\n                lastDenormUpdate: uint40(block.timestamp),\n                denorm: denorms[i],\n                desiredDenorm: denorms[i],\n                index: uint8(i),\n                balance: 0\n            });\n            _tokens.push(tokens[i]);\n            totalWeight = badd(totalWeight, denorms[i]);\n        }\n        _totalWeight = totalWeight;\n        _publicSwap = true;\n        emit LOG_PUBLIC_SWAP_ENABLED();\n    }\n\n    function initializeDefult() external onlyOwner {\n        uint256 len = tokenDefult.length;\n        uint256 totalWeight = 0;\n        for (uint256 i = 0; i < len; i++) {\n            _records[tokenDefult[i]] = Record({\n                ready: true,\n                lastDenormUpdate: uint40(block.timestamp),\n                denorm: denormsDefult[i],\n                desiredDenorm: denormsDefult[i],\n                index: uint8(i),\n                balance: 0\n            });\n            _tokens.push(tokenDefult[i]);\n            totalWeight = badd(totalWeight, denormsDefult[i]);\n        }\n        _totalWeight = totalWeight;\n        _publicSwap = true;\n        emit LOG_PUBLIC_SWAP_ENABLED();\n    }\n\n    function initializeDefultTest() external onlyOwner {\n        uint256 len = tokenDefult.length;\n        uint256 totalWeight = 0;\n        for (uint256 i = 0; i < len; i++) {\n            _records[tokenDefult[i]] = Record({\n                ready: true,\n                lastDenormUpdate: uint40(block.timestamp),\n                denorm: denormsDefult[i],\n                desiredDenorm: denormsDefult[i],\n                index: uint8(i),\n                balance: 0\n            });\n            _tokens.push(tokenDefult[i]);\n            totalWeight = badd(totalWeight, denormsDefult[i]);\n        }\n        _totalWeight = totalWeight;\n        _publicSwap = true;\n        emit LOG_PUBLIC_SWAP_ENABLED();\n    }\n\n    function _pushUnderlying(\n        address erc20,\n        address to,\n        uint256 amount\n    ) internal {\n        (bool success, bytes memory data) = erc20.call(\n            abi.encodeWithSelector(IERC20.transfer.selector, to, amount)\n        );\n        require(\n            success && (data.length == 0 || abi.decode(data, (bool))),\n            \"ERC20_FALSE\"\n        );\n    }\n\n    function updateRate(uint256 _numerator, uint256 _denominator) public {\n        require(_numerator != 0);\n        require(_denominator != 0);\n        currentRate.numerator = _numerator;\n        currentRate.denominator = _denominator;\n    }\n\n    function investInFund(uint256 cryptoAmount) public payable {\n        if (totalSupply() > 0) {\n            // eth\n            IERC20 token1 = IERC20(_tokens[0]);\n            ethSupply = token1.balanceOf(vault);\n            ethSupplyBNB = pancakeSwapRouter.getAmountsOut(\n                ethSupply,\n                getPathForToken(_tokens[0])\n            )[1];\n\n            // btc\n            IERC20 token2 = IERC20(_tokens[1]);\n            btcSupply = token2.balanceOf(vault);\n            btcSupplyBNB = pancakeSwapRouter.getAmountsOut(\n                btcSupply,\n                getPathForToken(_tokens[1])\n            )[1];\n\n            totalVaultValue = btcSupplyBNB.add(btcSupplyBNB);\n\n            amount1 = ethSupplyBNB.mul(cryptoAmount).div(totalVaultValue);\n            amount2 = btcSupplyBNB.mul(cryptoAmount).div(totalVaultValue);\n        }\n\n        uint256 deadline = block.timestamp + 15; // using 'now' for convenience, for mainnet pass deadline from frontend!\n        uint256 amountEth = msg.value;\n        for (uint256 i = 0; i < _tokens.length; i++) {\n            address t = _tokens[i];\n            Record memory record = _records[t];\n            uint256 swapAmount;\n            if (totalSupply() == 0) {\n                swapAmount = amountEth.mul(record.denorm).div(_totalWeight);\n            } else if (i == 0) {\n                swapAmount = amount1;\n            } else {\n                swapAmount = amount2;\n            }\n\n            pancakeSwapRouter.swapExactETHForTokens{value: swapAmount}(\n                0,\n                getPathForETH(t),\n                vault,\n                deadline\n            );\n        }\n\n        uint256 tokenAmount = cryptoAmount.mul(currentRate.numerator).div(\n            currentRate.denominator\n        );\n\n        _mint(msg.sender, tokenAmount);\n\n        // refund leftover ETH to user\n        (bool success, ) = msg.sender.call{value: address(this).balance}(\"\");\n        require(success, \"refund failed\");\n    }\n\n    function withdrawFromFundNew(uint256 tokenAmount) public payable {\n        require(tokenAmount <= balanceOf(msg.sender), \"not balance\");\n\n        uint256 deadline = block.timestamp + 15;\n\n        uint256 totalSupplyIndex = totalSupply();\n\n        _burn(msg.sender, tokenAmount);\n\n        for (uint256 i = 0; i < _tokens.length; i++) {\n            address t = _tokens[i];\n\n            IERC20 token = IERC20(t);\n            uint256 tokenBalance = token.balanceOf(vault);\n            uint256 amount = tokenBalance.mul(tokenAmount).div(\n                totalSupplyIndex\n            );\n\n            TransferHelper.safeTransferFrom(\n                address(t),\n                vault,\n                address(this),\n                amount\n            );\n            TransferHelper.safeApprove(\n                address(t),\n                address(pancakeSwapRouter),\n                amount\n            );\n            pancakeSwapRouter.swapExactTokensForETH(\n                amount,\n                0,\n                getPathForToken(t),\n                msg.sender,\n                deadline\n            );\n        }\n    }\n\n    function getPathForETH(address crypto)\n        public\n        view\n        returns (address[] memory)\n    {\n        address[] memory path = new address[](2);\n        path[0] = pancakeSwapRouter.WETH();\n        path[1] = crypto;\n\n        return path;\n    }\n\n    function getPathForToken(address token)\n        public\n        view\n        returns (address[] memory)\n    {\n        address[] memory path = new address[](2);\n        path[0] = token;\n        path[1] = pancakeSwapRouter.WETH();\n\n        return path;\n    }\n\n    function getETH() public view returns (address) {\n        return pancakeSwapRouter.WETH();\n    }\n\n    // important to receive ETH\n    receive() external payable {}\n}\n",
  "sourcePath": "/Users/navinalang/Navina-workgroup/05_create_and_burn/contracts/IndexSwap.sol",
  "compiler": {
    "name": "solc",
    "version": "0.8.10+commit.fc410830.Emscripten.clang"
  },
  "schemaVersion": "3.4.6",
  "updatedAt": "2022-05-05T21:08:32.143Z",
  "devdoc": {
    "events": {
      "LOG_PUBLIC_SWAP_ENABLED()": {
        "details": "Emitted when public trades are enabled. "
      }
    },
    "kind": "dev",
    "methods": {
      "allowance(address,address)": {
        "details": "See {IERC20-allowance}."
      },
      "approve(address,uint256)": {
        "details": "See {IERC20-approve}. NOTE: If `amount` is the maximum `uint256`, the allowance is not updated on `transferFrom`. This is semantically equivalent to an infinite approval. Requirements: - `spender` cannot be the zero address."
      },
      "balanceOf(address)": {
        "details": "See {IERC20-balanceOf}."
      },
      "burn(uint256)": {
        "details": "Destroys `amount` tokens from the caller. See {ERC20-_burn}."
      },
      "burnFrom(address,uint256)": {
        "details": "Destroys `amount` tokens from `account`, deducting from the caller's allowance. See {ERC20-_burn} and {ERC20-allowance}. Requirements: - the caller must have allowance for ``accounts``'s tokens of at least `amount`."
      },
      "decimals()": {
        "details": "Returns the number of decimals used to get its user representation. For example, if `decimals` equals `2`, a balance of `505` tokens should be displayed to a user as `5.05` (`505 / 10 ** 2`). Tokens usually opt for a value of 18, imitating the relationship between Ether and Wei. This is the value {ERC20} uses, unless this function is overridden; NOTE: This information is only used for _display_ purposes: it in no way affects any of the arithmetic of the contract, including {IERC20-balanceOf} and {IERC20-transfer}."
      },
      "decreaseAllowance(address,uint256)": {
        "details": "Atomically decreases the allowance granted to `spender` by the caller. This is an alternative to {approve} that can be used as a mitigation for problems described in {IERC20-approve}. Emits an {Approval} event indicating the updated allowance. Requirements: - `spender` cannot be the zero address. - `spender` must have allowance for the caller of at least `subtractedValue`."
      },
      "increaseAllowance(address,uint256)": {
        "details": "Atomically increases the allowance granted to `spender` by the caller. This is an alternative to {approve} that can be used as a mitigation for problems described in {IERC20-approve}. Emits an {Approval} event indicating the updated allowance. Requirements: - `spender` cannot be the zero address."
      },
      "initialize(address[],uint96[])": {
        "details": "Sets up the initial assets for the pool.",
        "params": {
          "denorms": "Initial denormalized weights for the tokens",
          "tokens": "Underlying tokens to initialize the pool with"
        }
      },
      "name()": {
        "details": "Returns the name of the token."
      },
      "owner()": {
        "details": "Returns the address of the current owner."
      },
      "renounceOwnership()": {
        "details": "Leaves the contract without owner. It will not be possible to call `onlyOwner` functions anymore. Can only be called by the current owner. NOTE: Renouncing ownership will leave the contract without an owner, thereby removing any functionality that is only available to the owner."
      },
      "symbol()": {
        "details": "Returns the symbol of the token, usually a shorter version of the name."
      },
      "totalSupply()": {
        "details": "See {IERC20-totalSupply}."
      },
      "transfer(address,uint256)": {
        "details": "See {IERC20-transfer}. Requirements: - `to` cannot be the zero address. - the caller must have a balance of at least `amount`."
      },
      "transferFrom(address,address,uint256)": {
        "details": "See {IERC20-transferFrom}. Emits an {Approval} event indicating the updated allowance. This is not required by the EIP. See the note at the beginning of {ERC20}. NOTE: Does not update the allowance if the current allowance is the maximum `uint256`. Requirements: - `from` and `to` cannot be the zero address. - `from` must have a balance of at least `amount`. - the caller must have allowance for ``from``'s tokens of at least `amount`."
      },
      "transferOwnership(address)": {
        "details": "Transfers ownership of the contract to a new account (`newOwner`). Can only be called by the current owner."
      }
    },
    "version": 1
  },
  "userdoc": {
    "kind": "user",
    "methods": {},
    "version": 1
  }
}